S00F00004D332D64656D6F2E73726563C3
S1130000E80C00203D240000592400005D24000079
S11300106124000065240000692400000000000041
S11300200000000000000000000000006D2400003B
S113003071240000000000007524000079240000F1
S11300407D24000081240000852400008924000010
S11300501D180000711800009D230000E12000001D
S1130060FF200000012100003121000033210000A5
S1130070512100005321000073210000752100006C
S11300809321000095210000B5210000B721000054
S1130090D7210000D9210000FD210000D92400004F
S11300A0DD240000450700007D070000B1070000C3
S11300B0ED240000F1240000F5240000F9240000E0
S11300C0FD24000001250000A5230000B123000049
S11300D02D2500002D2500000D2500001125000010
S11300E015250000192500001D250000212500000C
S11300F025250000292500002D2500002D250000C0
S113010070B5DFF8B8466168491C6160012808D001
S1130110022826D0042829D008282BD010282BD038
S113012070BDDFF89C562870E0687728A4BF0020D3
S1130130E060E06805EB400000232A4600F2041169
S1130140001DDFF88066766AB047E16805EB41027E
S113015092881209A260002813D128784018E06020
S113016070BDDFF85C060121017070BD2068401C81
S1130170206070BD002000E00120DFF84816096A05
S1130180884770BD38B5DFF84016FF220A60DFF8F3
S11301903C160A680A60DFF838160A680A60DFF855
S11301A024462060606880098001606040F2091084
S11301B0A16860F3D721A160DFF81806A062DFF818
S11301C018064FF000710160DFF810261160DFF8A7
S11301D01016F0230B704FF0806303601360F0235C
S11301E04B704FF0006303601360F02088700020B0
S11301F0216A8847DFF8C455002028606860E860F9
S1130200206980470020A169884768680128FCDBD1
S11302100120E169884760698047A86832BDF0B46D
S113022001460020CA681368B3F5803F28BF4FF029
S1130230FF305368C3F34443102B28BF4FF0FF3003
S1130240137A082B28BF4FF0FF309368C3F3C423FD
S1130250102B28BF4FF0FF305368C3F34423102BF7
S113026028BF4FF0FF30D368B3F5803F28BF4FF06D
S1130270FF300B790B2B24BF00234FF0FF3001D24A
S113028003B102234C790B2C28BF4FF0FF3080F0D0
S1130290B38004B10224002840F0AE808D68126857
S11302A02A75CA681268120A8D686A75CA68126863
S11302B0120C8D682A74CA681268120E8D686A74EA
S11302C0CA6855686D0A5268920902F0070242EA48
S11302D0C5028D6885F82020CA6895682D0C92683F
S11302E0D20C02F01F0242EA45128D6885F83120D3
S11302F0CA6895682D0E9268D20E42EA45128D683E
S113030085F830208A68CD68ED6882F82C50CA6878
S1130310D268120A8D6885F82D20CA68D268120C3A
S11303208D6885F82820CA68D268120E8D6885F811
S113033029208A68CD68AD6882F83450CA6852684A
S1130340C2F383028D682A72CA685268D20B02F023
S113035003028D682A76CA685268C2F340028D6827
S11303602A708A68CD686E68B60DB601D684AE6808
S1130370360AAF68BF0A07F00107BF0147EAC6168D
S1130380AF687F0A07F0010746EA47166D686D0CEF
S113039005F01F05354382F824508A680D7982F8E8
S11303A039508A684D7982F83850CA689268D20AFE
S11303B002F01F028D686A70CA68127902F00102A5
S11303C043EA820242F010028B685A72CA68526889
S11303D0920B02F0010244EA82028B791A4342F042
S11303E010028B685A768A68012382F83C30896847
S11303F091F83C209207FBD5F0BC7047816800223D
S113040081F83C20816891F83C209207FBD40022BB
S11304104A7281684A7681680A7807231A4203D0AF
S11304200A7842F080020A70816800224A700261F0
S11304308261C0680260416849084900416041F036
S11304400201416021F03C01416021F4E07141600E
S113045021F47851416021F48041416021F4C0319C
S1130460416021F4781141608902890A4160816800
S1130470090A0902816021F48071816021F400710C
S1130480816021F48061816021F47841816021F4EC
S1130490E021816021F4780141F40001816021F0C0
S11304A0E06181604901490941F000418160C26015
S11304B082627047F0B48269002992F9001014D165
S11304C0002301290EDB456906698468A789FF04B6
S11304D008D4A78925F8027BE48926F8024B5B1C23
S11304E08B42F2DB1370F0BC704700230129F9DB67
S11304F0456906698468A78BFF04F3D4A78B25F8A4
S1130500027BE48B26F8024B5B1C8B42F2DBE9E7AF
S113051070B504460D46E8070FD5B24800EB441603
S1130520B068417801F0BF0141F0A0014170F16869
S1130530886A10B10220896A8847A8070FD5A9489C
S113054000EB4416B068417801F07F0141F060018E
S11305504170F168886A10B10120896A8847680788
S11305601ED5A04800EB4416B068417A890609D527
S1130570417A01F0DF014172F168886A10B1082004
S1130580896A8847B068417E890609D5417E01F0B1
S1130590DF014176F168886A10B11020896A8847C2
S11305A028070FD58F4800EB4416B068417801F056
S11305B0DF0141F0C0014170F168886A10B1042084
S11305C0896A884770BD70B54401864D605900281A
S11305D012D166193046FFF722FE00280ED196F993
S11305E01C104A097D4B012601F01F0106FA01F196
S11305F043F82210665170BD4FF0FF3070BD10B546
S1130600400178494258012A11D100224250401831
S113061090F91C104A09744B012401F01F0104FADB
S113062001F143F82210FFF7E9FE002010BD4FF05E
S1130630FF3010BD40016B4A8358012B01D10229C0
S113064000D327E080188068002902BF417A41F076
S11306502101417203D0417E41F021014176002005
S1130660704740015F4A8358012B13D149B9801860
S11306708068417A01F0FB0141F0200141720020C1
S11306807047012906D180188068017841F0800103
S11306900170F4E74FF0FF3070474001514A83582E
S11306A0012B01D1022900D3F4E7801880680029C6
S11306B002BF417A41F03001417203D0417E41F0E2
S11306C03001417600207047F8B5044606980025AD
S11306D06401444EA759012F06D109B94FF0FF35E3
S11306E00AB94FF0FF3513B94FF0FF350EE078B972
S11306F01F78112FF8D2002FF6D03DB9A41921612B
S11307006261A36101462046FFF7D4FE2846F2BD8C
S11307100128E9D11F78052FE6D2ECE7002052E743
S113072000206CE70146002084E70146002098E79A
S113073001460020B1E780B5009313460A460146FE
S1130740002018E02948006800F00F010020DFE6CF
S1130750012038E7012052E7014601206AE70146FB
S113076001207EE70146012097E780B500931346F8
S11307700A4601460120FFF7A7FF02BD1C48006896
S113078000F00F010120C3E602201CE7022036E737
S1130790014602204EE70146022062E7014602209C
S11307A07BE780B5009313460A4601460220E2E740
S11307B01048006800F00F010220A9E6C8080020D4
S11307C0580500208803002000350340043003400E
S11307D0043103400101000080E200E000E100E098
S11307E019E400E00C04002080E100E078100340EC
S11307F07C1003408010034080B500F02CFB00F017
S113080059FB00F054F900F049F8FCE710B5DFF8A3
S11308100044616919B90002E060012026E0012961
S113082025D1E1684018E0602168F1B14FF47A7194
S113083090FBF1F201FB12030A2093FBF0F010B9D4
S11308400FF2084108E0642093FBF0F000280CBF8D
S11308500FF210410FF2244104F1180000F03AFBAA
S113086004F11801002000F01AFC0020606110BDA2
S113087010B50120FFF786FCDFF89443206161681E
S113088059B102460FF20C4104F1180000F022FBAA
S113089004F11801002000F002FC10BD10B5552130
S11308A0062000F0D8FB322000F0BAF9D94C606879
S11308B0401C606000F007F8FFF7DAFF206808B911
S11308C000F076F810BDD448016851B9CF490968E1
S11308D00A6882F001020A60CD490A6882F00102C6
S11308E00A60406850B9C9494868016881F001014B
S11308F00160C749486880F001004860704780B5CE
S1130900C649CA6E5054501CC8664A6E521C4A6688
S1130910642290FBF2F302FB1300C866896E8142E5
S113092003D14FF0FF3000F0DBFB01BDBB498A6E01
S1130930C86E824208BF20200AD0486E401E486616
S1130940505C521C642392FBF3FC03FB1C228A665A
S1130950704710B5FFF7EAFF3028FBD33A28F9DADD
S113096003E004EB840100EB4100A0F13004FFF745
S1130970DDFF2028F5D1204610BD70B504460D4694
S1130980FFF7D4FF2028FBD004F8010B012602E076
S113099004F8010B761CFFF7C9FF2028F8D1AE42FA
S11309A005DA002004F8010B761CAE42F9DB70BDB9
S11309B09A48406E032800DA704770B584B000A8E6
S11309C0002100220B460EC00A2100A8FFF7D5FF24
S11309D08F4C00AA0FF2C82104F1180000F07AFA33
S11309E004F11801002000F05AFB83A100A800F0D4
S11309F07BFB70B9FFF7ADFF02460FF2BC2104F197
S1130A00180000F067FAA268D2B241F6641100201F
S1130A1044E07AA100A800F067FB48B9FFF799FF0A
S1130A2002460FF2B42104F1180000F053FA37E043
S1130A3073A100A800F058FB28B9FFF78AFF02460B
S1130A400FF2B821EFE76FA100A800F04DFB30B919
S1130A500FF2CC2104F1180000F03CFA20E06AA166
S1130A6000A800F041FB00BBFFF773FF132190FBCC
S1130A70F1F201FB1205FFF76CFF642190FBF1F228
S1130A8001FB120633462A460FF2B82104F118007E
S1130A9000F020FAF2B241F66411E8B200F026FC4C
S1130AA004F11801002000F0FAFA04B070BD70B52A
S1130AB0574C1E20A060554D28680021016001207C
S1130AC000F0AEF8686800210160012000F0A8F889
S1130AD0A86800210160012000F0A2F8E868002164
S1130AE00160012000F09CF82869002101600120C8
S1130AF000F096F8686900210160012000F090F888
S1130B00A86900210160012000F08AF8E869002149
S1130B100160012000F084F8286A002101600120AE
S1130B2000F07EF80920012255F8041B0A60401EDB
S1130B30FAD14FF4AD71002000F0E6F90FF2342140
S1130B40002000F0ACFA41F245052946032000F0EC
S1130B50DBF92946062000F0D7F92946012000F0E8
S1130B60D3F92946072000F0CFF9002541F6641691
S1130B70A268D2B23146E8B200F016FBE8B200F047
S1130B8097FB6D1C102DF3DB0021002000F0FAFB15
S1130B900021042000F0F6FB0021062000F0F2FB07
S1130BA000210A2000F0EEFB00210C2000F0EAFBFB
S1130BB000210E2000F0E6FB0121084600F0E2FBD4
S1130BC00121032000F0DEFB0121052000F0DAFB07
S1130BD00121092000F0D6FB01210B2000F0D2FBFB
S1130BE001210F2000F0CEFB00210D20BDE8704054
S1130BF000F0C8BB000000006D760000746C0000BB
S1130C00747200007461000073700000C40400205A
S1130C105C070020E008002008636642D807002033
S1130C2001B481B0019842F21071484301900198D7
S1130C30411E019140B10A200090009800281CBF79
S1130C400098401EF8D1F2E702B070470A0D6469BB
S1130C507374616E63653A2025642E3030256420F8
S1130C606D0A0D000A0D64697374616E63653A2040
S1130C7025642E302564206D0A0D00000A0D646978
S1130C807374616E63653A2025642E2564206D0AB1
S1130C900D0000000A4C696768743A25640A000074
S1130CA00A0D726563656976656420636F6D6D61B5
S1130CB06E643A25730A0D000A0D726563656976E0
S1130CC0656420636F6D6D616E643A2564204D4FD9
S1130CD056450A0D000000000A0D726563656976C9
S1130CE0656420636F6D6D616E643A2564205455AC
S1130CF0524E5F4C4546540A0D0000000A0D7265C1
S1130D0063656976656420636F6D6D616E643A2511
S1130D1064205455524E5F52494748540A0D00000E
S1130D200A0D726563656976656420636F6D6D6134
S1130D306E643A5455524E5F41524F554E440A0D1B
S1130D40000000000A0D72656365697665642063BE
S1130D506F6D6D616E643A706F72743D25642072BC
S1130D606174653D2564207365742070776D0A0D88
S1130D70000000000D0A57656C636F6D6520796F84
S1130D8075206A6F696E20746865205473696E6794
S1130D9068756120456D626564646564204375729D
S1130DA0726963756C756D210D0A55415254206F3B
S1130DB06620426C7565746F6F746820617320627D
S1130DC065656E20696E697469616C697A65642E03
S1130DD02E2E0D0A506C65617365207072657373F5
S1130DE020616E796B65792E0D0A000070B42B4872
S1130DF0011D08220B681BB11C880CB1641E1C80E9
S1130E00091D521EF6D101784A1E71B903222449E4
S1130E10244B09240D7825B11D682E6886F001063F
S1130E202E601B1D491C641EF4D1027041784A1EB9
S1130E3071B919221C491B4B09240D7825B11D6871
S1130E402E6886F001062E601B1D491C641EF4D119
S1130E50427070BC704710B584B001208DF800005A
S1130E608DF801008DF8020000208DF8030046F291
S1130E70A810019002900D4803900D4C01212046CA
S1130E8000F034FD40B9002200A9204600F048FDDE
S1130E900021204600F0FBFD04B010BDE804002052
S1130EA0AC040020C4040020B8040020ED0D0000B0
S1130EB00050014080B500F00FFE00F01DFE00F070
S1130EC01BFA4FF4AD71002000F01EF8BDE801409C
S1130ED000F03CB90CB41CB5044604A8019000947D
S1130EE001AB0A4600A907487844183000F022FEF6
S1130EF0009900220A7000285CBF0098001B16BCF1
S1130F005DF80CFBEB03000010B4072800F2A1808D
S1130F10DFE800F0043A505D9F1E7389DFF8A421D6
S1130F20136843F006031360DFF89C21136823F46D
S1130F307C734FF4A87423431360DFF8902180235B
S1130F401360DFF88C211360DFF88821A02313706D
S1130F50DFF8842152F8203080245C7052F820306D
S1130F6001241C7052F8203080245C7152F8203027
S1130F7000241C7152F8202091811321517057498B
S1130F804454012010BC70474E4AD36843F0C00358
S1130F90D3604D4A136823F47C4343F4A84313609D
S1130FA04FF40072494B1A60494B1A60494AA02316
S1130FB09370CDE7434A536943F00C035361424AAB
S1130FC0136823F4702343F4A0231360C0E73D4A5D
S1130FD0D36843F00703D3603B4A136823F07C6370
S1130FE043F0286313604FF40052384B1A60384BB7
S1130FF01A60384AA0239371AAE7324AD36843F0AF
S11310003803D360304A536823F47C1343F4A813A1
S113101053604FF400222D4B1A602D4B1A602D4A59
S1131020A023137394E7274AD36843F46063D3601F
S1131030254A536823F07C6343F0A86353604FF45C
S11310400012224B1A60224B1A60224AA023937387
S11310507EE7002096E7204A52F8203093F805C036
S11310605FEA8C7CFAD51981704780B51A4951F82A
S113107020104A7938231A4204D0487940F080007D
S1131080487101BD098920B9C8B2BDE80240FFF723
S113109036BC062804BFC8B2FFF7B8FB01BD38B59B
S11310A004460D460AE00A2803D10D212046FFF725
S11310B0D2FF15F8011B2046FFF7CDFF2878002842
S11310C0F1D131BD083003401C36034080E200E01A
S11310D000E100E007E400E02C050020D80800202F
S11310E080B500F0B5FD00BF820707D010F8012BD2
S11310F011F8013BBAB19A42F6D014E002680B68C9
S11311009A42A2F1013301BF934313F0803F50F898
S1131110042F51F8043FF3D010F8012B11F8013BD0
S11311200AB19A42F8D0D01A704750F8041B61B142
S113113050F8042BD30744BFA9F101039A180023E4
S113114042F8043B091FFAD1EFE7704710B541F6A6
S1131150641432222146002000F026F8322221466F
S1131160012000F021F832222146022000F01CF870
S113117032222146032000F017F8322221460420AF
S113118000F012F832222146052000F00DF8322238
S11311902146062000F008F832222146072000F0FC
S11311A003F8012010BD000010B441F69A139942CF
S11311B001D2652A01D3002077E00728FBD8DFE8B5
S11311C000F005121B252F394650F4E73E49012350
S11311D00B603E4900230B6001234B603C490B78B4
S11311E003F0F00349E0384901234B6037490023F9
S11311F00B6201234B62F1E7334901238B603349CE
S113120000230B6401234B64314933E02E4901234D
S1131210CB602E4900230B6601234B662C4929E041
S1131220294901230B612B4900230B6001234B60E7
S11312302949D4E7244901234B61264900230B6241
S113124001234B6224490B7803F0F00315E0234992
S113125001230B601F4900230B6401234B641E49C7
S113126008E01F4901230B601A4900230B66012380
S11312704B6619490B7803F00F030B70194951F8A9
S1131280203041F212049C8100245C7451F8203017
S11312901C7451F820004FF4344101801249514329
S11312A06422B1FBF2F18180012010BC7047000080
S11312B00C4951F82000818941F002018181818922
S11312C041F0010181817047A801664208C266426B
S11312D00151024088C26642015302403000664216
S11312E00C0166420C05002000B4C4045CE70268EB
S11312F0531C03601170704700B5DFF89805FF2197
S11313000160DFF89405016821F40041016041683F
S113131021F47F414160816821F4F87181600169A1
S113132021F440710161DFF87405016821F4004182
S11313300160416821F47F414160816821F4F871C2
S11313408160016921F4407101614021DFF8500599
S113135000F084FCDFF84C050221002240F8042B45
S113136040F8042B40F8042B40F8042B40F8042BDD
S113137040F8042B40F8042B40F8042B491EEDD10F
S113138000BD0000DFF80C25FF231360102880F057
S11313904482002940F024810F2800F22181DFE8F3
S11313A010F0100021003200430054006500760064
S11313B087009800A900BA00CB00DC00ED00FE0015
S11313C00F01DFF8D404016821F400410160DFF863
S11313D0CC04016821F400410160DFF8C404002159
S11313E001607047DFF8B004416821F400514160A6
S11313F0DFF8A804416821F400514160DFF8A0043B
S1131400002141607047DFF89004816821F01001E9
S11314108160DFF88804816821F010018160DFF8C1
S11314208004002181607047DFF86C04416821F476
S113143080514160DFF86404416821F480514160C7
S1131440DFF85C040021C1607047DFF84C04816858
S113145021F020018160DFF84404816821F020013B
S11314608160DFF83C04002101617047DFF8280443
S1131470416821F400614160DFF82004416821F4EF
S113148000614160DFF81804002141617047DFF812
S11314900804816821F040018160DFF8000481685C
S11314A021F040018160DFF8F80300218161704779
S11314B0DFF8E403416821F480614160DFF8DC0374
S11314C0416821F480614160DFF8D4030021C161E7
S11314D07047DFF8C403816821F080018160DFF880
S11314E0BC03816821F080018160DFF8B40300212E
S11314F001627047DFF8A003416821F40071416084
S1131500DFF89803416821F400714160DFF890032B
S1131510002141627047DFF88003816821F4807103
S11315208160DFF87803816821F480718160DFF8DD
S11315307003002181627047DFF85C03416821F485
S113154080714160DFF85403416821F48071416087
S1131550DFF84C030021C1627047DFF83C034168A7
S113156021F400414160DFF83403416821F4004173
S11315704160DFF82C03002101637047DFF8180392
S1131580016921F480710161DFF81003016921F41C
S113159080710161DFF80803002141637047DFF8BF
S11315A0F802416821F480414160DFF8F0024168AB
S11315B021F480414160DFF8E80200218163704733
S11315C0DFF8D402016921F400710161DFF8CC0273
S11315D0016921F400710161DFF8C40200211BE1FB
S11315E0012940F01A810F2800F21781DFE810F07A
S11315F010002000300040005000600070008000A7
S11316009000A000B100C200D300E300F400040184
S1131610DFF88402016821F400410160DFF87C02F4
S1131620016841F400410160DFF874020121D7E64A
S1131630DFF86402416821F400514160DFF85C0284
S1131640416841F400514160DFF854020121D8E6B9
S1131650DFF84402816821F010018160DFF83C0268
S1131660816841F010018160DFF834020121D9E67C
S1131670DFF82402416821F480514160DFF81C0244
S1131680416841F480514160DFF814020121DAE637
S1131690DFF80402816821F020018160DFF8FC0199
S11316A0816841F020018160DFF8F4010121DBE66B
S11316B0DFF8E401416821F400614160DFF8DC01F6
S11316C0416841F400614160DFF8D4010121DCE6A6
S11316D0DFF8C401816821F040018160DFF8BC01BA
S11316E0816841F040018160DFF8B4010121DDE649
S11316F0DFF8A401416821F480614160DFF89C01B6
S1131700416841F480614160DFF894010121DEE623
S1131710DFF88401816821F080018160DFF87C01B9
S1131720816841F080018160DFF874010121DFE606
S1131730DFF86401416821F400714160DFF85C0165
S113174041684FF4007211434160DFF854010121F4
S1131750DFE6DFF84401816821F480718160DFF8FD
S11317603C0181684FF4807211438160DFF83001DD
S11317700121DFE6DFF82001416821F48071416036
S1131780DFF8180141684FF4807211434160DFF8BB
S113179010010121DFE6DFF80001416821F4004176
S11317A04160DFF8F800416841F400414160DFF82E
S11317B0F0000121E0E6DFF8E000016921F4807126
S11317C00161DFF8D80001694FF4807211430161AF
S11317D0DFF8CC000121E0E6DFF8BC00416821F429
S11317E080414160DFF8B400416841F480414160C8
S11317F0DFF8AC000121E1E6DFF89C00016921F487
S113180000710161DFF8940001694FF40072114323
S11318100161DFF88C000121C163704710B5224CCF
S1131820206850B12148006838B11E488068010022
S113183018BF80471E4800210160606850B11B48F2
S1131840406838B11748C069010018BF804718487C
S113185000214160206950B11448006938B1114831
S1131860006A010018BF804711480021016110BDC2
S11318701048006800B9704780B50F48006838B157
S11318800848406B010018BF80470C4800210160E4
S113189001BD000000350340003003400032034026
S11318A04808002088080020040060428400604248
S11318B00401604238006042B8006042380160426E
S11318C038B504460D462069C00705D50020E06000
S11318D02868010018BF8047206BC00705D5002089
S11318E0E0626868010018BF804731BD002801D15B
S11318F004207047734A1368984202D1002353604E
S1131900936001290AD17049884207D16F48402168
S113191001606F4801606F48A0210170002070478A
S11319201CB401AB00241C6000AB1C6000B109B9FD
S11319300420AAE0634B1C68A042F9D1002A4FD1CD
S113194082600A781AB1022A0DD008D3F0E7019A0E
S113195022F040020192019A520852000AE0019AD0
S113196042F04002F6E7019A22F040020192019A05
S113197042F0010201924A781AB1022A0DD008D32A
S1131980D6E7019A22F004020192019A22F0080299
S11319900AE0019A42F00402F6E7019A22F00402F6
S11319A00192019A42F0080201928A78019C62F342
S11319B0410401944A688C7834B9B2F5803FB7D2B7
S11319C08C68B4F5803FB3D202608A688261CA78B9
S11319D0019C62F3C71401948460C868586053E0A2
S11319E0012AA5D1002282620A781AB1022A0DD0F6
S11319F008D39DE7009A22F040020092009A520810
S1131A0052000AE0009A42F04002F6E7009A22F0FF
S1131A1040020092009A42F0010200924A781AB100
S1131A20022A0DD008D383E7009A22F00402009220
S1131A30009A22F008020AE0009A42F00402F6E753
S1131A40009A22F004020092009A42F008020092E6
S1131A508A78009C62F3410400944A688C7844B903
S1131A60B2F5803FBFF464AF8C68B4F5803FBFF437
S1131A705FAF02628A688263CA78009C62F3C7140B
S1131A8000948462C8689860002016BC70470028DF
S1131A9001D104207047002908D1816841F0200158
S1131AA08160816841F08001816009E00129F0D101
S1131AB0816A41F020018162816A41F08001816282
S1131AC0002070474C0500200050014080E200E0F7
S1131AD000E100E006E400E00548016821F4FE713D
S1131AE001600448016821F4FE710160704700BF81
S1131AF018300340183203400A480921012350F8E2
S1131B00042B1360491EFAD107480168074A1140A3
S1131B1001600748016841F4DE4141F0E0010160E1
S1131B2070470000C4040020003003401F90FFFFF2
S1131B30003203402DE9F04784B0814688461446BC
S1131B401E460DF1000A04E014F8011B4046C84784
S1131B508046207810B904B0BDE8F0872528F3D179
S1131B60641C14F8015B252D6FD0582D51D0632DC2
S1131B700ED0642D12D0692D10D06F2D49D0702D48
S1131B804CD0732D50D0752D43D0782D41D0E0E743
S1131B903068011D31600168C9B2D7E73168081D9A
S1131BA030600F68002F03D52D214046C84780467A
S1131BB06F2D08BF082105D045F02000782814BFF8
S1131BC00A2110210B203A46642D02D1002F48BF70
S1131BD05242431E1846B2FBF1FC01FB1C22303278
S1131BE0D2B23A2A24BFA5F1510E724403F80A2056
S1131BF062460AB10128ECDAC0F10B0500A94718C6
S1131C004046002DA4D017F8011BC8476D1EFAD119
S1131C109EE73168081D30600F68C9E73168081D08
S1131C2030600F687825C3E73168081D30600D689F
S1131C30284600F017F807464046002F88D015F8CC
S1131C40011BC8477F1EFAD182E725217EE70000E9
S1131C500746384600F022F8FBE70000002200F0B7
S1131C6027B8000000F10103810704D010F8011B1C
S1131C7089B18107FAD10268B2F10131914311F0BF
S1131C80803F04BF50F8042FF6E710F8011B11B190
S1131C9010F8011BFBE7C01A704700000149182027
S1131CA0ABBEFBE72600020062F30F2262F31F4281
S1131CB000B5130096469446103928BFA0E80C508E
S1131CC0FAD85FEA417C28BF0CC048BF40F8042B17
S1131CD0C90728BF20F8022B48BF00F8012B00BD1C
S1131CE081B0002100914FF4C2710A4A02E0009BC6
S1131CF05B1C0093009B53B9009B01FB03231B68EF
S1131D009842F4D1009801FB0020001D00E000205F
S1131D1001B070470402002038B504460D46022085
S1131D201FE0002180F87110009800EBC00105EB62
S1131D30810090F871000128009800EBC00105EBC8
S1131D408100EED0806E50B10098C0B200EBC001AB
S1131D5005EB810202F154012046926E90470098EF
S1131D60401C0090009895F85010884216D20098B4
S1131D7000EBC00105EB8100806D008800F48060F9
S1131D800128ECDB009800EBC00105EB8100806DBD
S1131D90008800F480400128E1DBC5E731BDF0B5DF
S1131DA083B004460D466878002800F0FD8094F85E
S1131DB04000C0070AD594F8400000F0FE0084F803
S1131DC04000A86810B12046A9688847201D018CEE
S1131DD0890504D5018C4FF6FF521140018404F2A9
S1131DE0400694F84000800706D53089400403D4A7
S1131DF0308940F4804030813089400523D53089D2
S1131E00400420D594F8400080070BD594F8400096
S1131E1000F0FD0084F84000E868A0B12046E968BD
S1131E20884710E03089D5F88C0030B105F178018D
S1131E302046D5F88C20904705E0308930894FF64C
S1131E40FF3108403081B088400509D5B08840048E
S1131E5006D5A86E20B105F154012046AA6E90471C
S1131E6094F8400040070AD594F8400000F0FB00C5
S1131E7084F84000686910B120466969884794F87D
S1131E804000000733D594F8400000F0F70084F8D0
S1131E90400095F85000019047F6FF7016E0019954
S1131EA001EBC10205EB82014A6B128842F4004245
S1131EB0496B0A80019901EBC10205EB8201496B70
S1131EC00A8802400A800199491E0191019900295A
S1131ED0E5D1B0884BF6FF710840B080308940F4FA
S1131EE080403081A86910B12046A969884794F8D8
S1131EF04000C00649D594F8400000F0EF0084F893
S1131F004000687901283BD101262046FFF7E8FE0E
S1131F10074600200BE09DF8000007EBC000B0F876
S1131F205811491EA0F858119DF80000401C8DF866
S1131F3000009DF8000005281FD29DF8000007EB63
S1131F40C000D0F85C010028EED000269DF8000007
S1131F5007EBC000B0F858010028DCD120469DF8FA
S1131F60001007EBC101D1F85C1188479DF800000F
S1131F7007EBC000C0F85C6102E00EB1002078718C
S1131F80E86910B12046E969884794F84000800662
S1131F900AD594F8400000F0DF0084F84000286976
S1131FA010B12046296988472878002800F09580D8
S1131FB02079C00747D5207900F0FE0020716879A8
S1131FC001283BD101262046FFF78AFE0746002060
S1131FD00BE09DF8000007EBC000B0F85811491E53
S1131FE0A0F858119DF80000401C8DF800009DF8E1
S1131FF0000005281FD29DF8000007EBC000D0F8B0
S11320005C010028EED000269DF8000007EBC0001C
S1132010B0F858010028DCD120469DF8001007EBE9
S1132020C101D1F85C1188479DF8000007EBC0009E
S1132030C0F85C6102E00EB100207871E86910B16B
S11320402046E96988472079800708D5207900F07F
S1132050FD002071286A10B12046296A884720793A
S1132060400709D5686A18B12046696A884703E0C1
S1132070207900F0FB0020712079000708D5207931
S113208000F0F7002071A86A10B12046A96A8847B9
S11320902079C00609D5E86A18B12046E96A88475C
S11320A003E0207900F0EF0020712079800608D544
S11320B0207900F0DF002071286B10B12046296BD5
S11320C088472079000608D5207900F07F00207128
S11320D0686B10B12046696B884703B0F0BD0000FF
S11320E080B54548007800B91AE0022801D10020E3
S11320F01AE0042804BF002000F082F801BD7047F4
S113210080B53D48407808B9012009E0022801D192
S1132110012009E0042804BF012000F071F801BD8A
S1132120BDE80240FEF7A1BFBDE8024000F06AB876
S1132130704780B53048807808B90220F0E702285B
S113214000D1F1E7042804BF022000F059F801BDD2
S1132150704780B52848C07808B90320E0E7022812
S113216001D10320E0E7042804BF032000F048F86D
S113217001BD704780B52048007908B90420CFE735
S1132180022801D10420CFE7042808BF00F038F862
S113219001BD704780B51848407908B90520BFE7EC
S11321A0022801D10520BFE7042804BF052000F060
S11321B027F801BD704780B50F48807908B906201B
S11321C0AEE7022801D10620AEE7042804BF0620AA
S11321D000F016F801BD704780B50748C07908B90A
S11321E007209DE7022801D107209DE7042804BFAA
S11321F0072000F005F801BDD80800207047000052
S11322007047000070B505460E4E56F8250001894A
S11322100D4C207802191171401C2070C9B20020A5
S1132220FEF719FF607856F82510021992F8042178
S11322300A81401CC0B2202808BF0020607070BD15
S1132240000000006C040020000000202248234904
S11322500160234901602348002101701D48017475
S1132260012101758121017601771F4983220A70BA
S113227000220A725C220A74027842F0020202709E
S113228002799207FCD500220A750A7613220A778E
S1132290017841F0100101700179C906FCD501787B
S11322A041F0400101700178027902F0E00201F08E
S11322B0E0018A42F7D140F2FF300C490A6802403B
S11322C0824206D00A480B4A8260096801800021D4
S11322D08160704700000140001C014051E5CC1AA8
S11322E0AE1A33E50810014020000140000100400F
S11322F004E0024054E5CC1A2DE9F04100F1080154
S1132300026801EB820243685808400002EB800037
S113231000240025264601270CE014F8018BF4451F
S113232006D00CF8018B761C36B2002EF7D40127A8
S1132330F44513D1824201D1BDE8F08152F804CBB7
S11323405FEAC37E48BFCC4452F804EBE644EFE7AF
S11323500C686418091D51F8045B2D19AC42F7D0C0
S11323605FB114F9016B002705E00C686418091DBE
S113237051F8045B2D19AC42F7D0002ECDD436B2FF
S1132380002ED4D4F44518BFAC421EBF14F8018B00
S11323900CF8018B761EF2D1CAE700000749084801
S11323A0FFF78EBA00E0000006490748FFF7B4BC07
S11323B000E0000003490448FFF7F1BC5005002089
S11323C000500140080200200021044010B50849D3
S11323D079441C31074C7C441A34A14206D0081DB0
S11323E00A68511888470146A142F8D110BD00BFC0
S11323F0080000003000000033EDFFFF90030000F0
S11324005805002000000000F1FEFFFF020000005C
S1132410020000001C010000700100000000002008
S1132420580500000120C046002801D0FFF7CEFF68
S11324300020FEF7E1F9FEF753FE00000148804753
S1132440014800474D2200004D240000C046C0460C
S1132450C046C046FFF7E6FFFFF7FEBFFFF7FEBF2B
S1132460FFF7FEBFFFF7FEBFFFF7FEBFFFF7FEBF9C
S1132470FFF7FEBFFFF7FEBFFFF7FEBFFFF7FEBF8C
S1132480FFF7FEBFFFF7FEBFFFF7FEBFFFF7C6B9BA
S1132490FFF7EEB9FFF782BFFFF722BEFFF72FBEAB
S11324A0FFF72EBEFFF744BEFFF743BEFFF750BE53
S11324B0FFF74FBEFFF75DBEFFF75CBEFFF769BED7
S11324C0FFF768BEFFF776BEFFF775BEFFF783BE62
S11324D0FFF782BEFFF792BEFFF7FEBFFFF7FEBF16
S11324E0FEF730B9FEF74AB9FEF762B9FFF7FEBF4F
S11324F0FFF7FEBFFFF7FEBFFFF7FEBFFFF7FEBF0C
S1132500FFF7FEBFFFF74EBFFFF752BFFFF7FEBF57
S1132510FFF7FEBFFFF7FEBFFFF7FEBFFFF7FEBFEB
S1132520FFF7FEBFFFF7FEBFFFF7FEBFFFF7FEBFDB
S113253081008100FA001E0D0A53504920536C613A
S1132540766572206F757470757420666F7220746E
S1132550657374210D0A81009D00022104408100ED
S113256081008100F9000002FB00018080FC00155D
S11325701D07000021070000250700002B070000AD
S1132580310700003707F6000002FB00018080FCE1
S113259000155107000055070000590700005F07A8
S11325A00000650700006B07F6000002FB000180D5
S11325B080FC0015890700008D07000091070000CA
S11325C0970700009D070000A307F1000670024072
S11325D088030020F4000019F40006710240B403DB
S11325E00020F400001AF40006720240E003002008
S11325F0F400001BFC001E800340008103400082A5
S113260003400083034000840340008503400086A8
S1132610034000870340FC000388816642FC0003FA
S113262080816642F80007848166428C816642E8B4
S1132630002514806642188066421C806642208011
S1132640664224806642288066422C80664234803A
S11326506642388066420319DD0042500240405011
S1132660024080500240C05002400052024040529A
S1132670024080520240C052024000800340008168
S1132680034000820340008303400084034000852C
S11326900340008603400087034000500140F800D7
S903244D8B
