S00F00004D332D64656D6F2E73726563C3
S1130000C00B002009260000252600002926000038
S11300102D260000312600003526000000000000D7
S1130020000000000000000000000000392600006D
S11300303D26000000000000412600004526000087
S1130040492600004D2600005126000055260000D8
S1130050592600005D26000049250000D522000035
S1130060F3220000F52200002523000027230000CE
S11300704523000047230000672300006923000094
S11300808723000089230000A9230000AB2300007C
S1130090CB230000CD230000F1230000A52600009F
S11300A0A9260000450700007D070000B1070000F5
S11300B0B9260000BD260000C1260000C5260000A8
S11300C0C9260000CD260000512500005D25000052
S11300D0F9260000F9260000D9260000DD260000DC
S11300E0E1260000E5260000E9260000ED260000D8
S11300F0F1260000F5260000F9260000F92600008C
S113010070B5DFF8B8466168491C6160012808D001
S1130110022826D0042829D008282BD010282BD038
S113012070BDDFF89C562870E0687728A4BF0020D3
S1130130E060E06805EB400000232A4600F2041169
S1130140001DDFF88066766AB047E16805EB41027E
S113015092881209A260002813D128784018E06020
S113016070BDDFF85C060121017070BD2068401C81
S1130170206070BD002000E00120DFF84816096A05
S1130180884770BD38B5DFF84016FF220A60DFF8F3
S11301903C160A680A60DFF838160A680A60DFF855
S11301A024462060606880098001606040F2091084
S11301B0A16860F3D721A160DFF81806A062DFF818
S11301C018064FF000710160DFF810261160DFF8A7
S11301D01016F0230B704FF0806303601360F0235C
S11301E04B704FF0006303601360F02088700020B0
S11301F0216A8847DFF8C455002028606860E860F9
S1130200206980470020A169884768680128FCDBD1
S11302100120E169884760698047A86832BDF0B46D
S113022001460020CA681368B3F5803F28BF4FF029
S1130230FF305368C3F34443102B28BF4FF0FF3003
S1130240137A082B28BF4FF0FF309368C3F3C423FD
S1130250102B28BF4FF0FF305368C3F34423102BF7
S113026028BF4FF0FF30D368B3F5803F28BF4FF06D
S1130270FF300B790B2B24BF00234FF0FF3001D24A
S113028003B102234C790B2C28BF4FF0FF3080F0D0
S1130290B38004B10224002840F0AE808D68126857
S11302A02A75CA681268120A8D686A75CA68126863
S11302B0120C8D682A74CA681268120E8D686A74EA
S11302C0CA6855686D0A5268920902F0070242EA48
S11302D0C5028D6885F82020CA6895682D0C92683F
S11302E0D20C02F01F0242EA45128D6885F83120D3
S11302F0CA6895682D0E9268D20E42EA45128D683E
S113030085F830208A68CD68ED6882F82C50CA6878
S1130310D268120A8D6885F82D20CA68D268120C3A
S11303208D6885F82820CA68D268120E8D6885F811
S113033029208A68CD68AD6882F83450CA6852684A
S1130340C2F383028D682A72CA685268D20B02F023
S113035003028D682A76CA685268C2F340028D6827
S11303602A708A68CD686E68B60DB601D684AE6808
S1130370360AAF68BF0A07F00107BF0147EAC6168D
S1130380AF687F0A07F0010746EA47166D686D0CEF
S113039005F01F05354382F824508A680D7982F8E8
S11303A039508A684D7982F83850CA689268D20AFE
S11303B002F01F028D686A70CA68127902F00102A5
S11303C043EA820242F010028B685A72CA68526889
S11303D0920B02F0010244EA82028B791A4342F042
S11303E010028B685A768A68012382F83C30896847
S11303F091F83C209207FBD5F0BC7047816800223D
S113040081F83C20816891F83C209207FBD40022BB
S11304104A7281684A7681680A7807231A4203D0AF
S11304200A7842F080020A70816800224A700261F0
S11304308261C0680260416849084900416041F036
S11304400201416021F03C01416021F4E07141600E
S113045021F47851416021F48041416021F4C0319C
S1130460416021F4781141608902890A4160816800
S1130470090A0902816021F48071816021F400710C
S1130480816021F48061816021F47841816021F4EC
S1130490E021816021F4780141F40001816021F0C0
S11304A0E06181604901490941F000418160C26015
S11304B082627047F0B48269002992F9001014D165
S11304C0002301290EDB456906698468A789FF04B6
S11304D008D4A78925F8027BE48926F8024B5B1C23
S11304E08B42F2DB1370F0BC704700230129F9DB67
S11304F0456906698468A78BFF04F3D4A78B25F8A4
S1130500027BE48B26F8024B5B1C8B42F2DBE9E7AF
S113051070B504460D46E8070FD5B24800EB441603
S1130520B068417801F0BF0141F0A0014170F16869
S1130530886A10B10220896A8847A8070FD5A9489C
S113054000EB4416B068417801F07F0141F060018E
S11305504170F168886A10B10120896A8847680788
S11305601ED5A04800EB4416B068417A890609D527
S1130570417A01F0DF014172F168886A10B1082004
S1130580896A8847B068417E890609D5417E01F0B1
S1130590DF014176F168886A10B11020896A8847C2
S11305A028070FD58F4800EB4416B068417801F056
S11305B0DF0141F0C0014170F168886A10B1042084
S11305C0896A884770BD70B54401864D605900281A
S11305D012D166193046FFF722FE00280ED196F993
S11305E01C104A097D4B012601F01F0106FA01F196
S11305F043F82210665170BD4FF0FF3070BD10B546
S1130600400178494258012A11D100224250401831
S113061090F91C104A09744B012401F01F0104FADB
S113062001F143F82210FFF7E9FE002010BD4FF05E
S1130630FF3010BD40016B4A8358012B01D10229C0
S113064000D327E080188068002902BF417A41F076
S11306502101417203D0417E41F021014176002005
S1130660704740015F4A8358012B13D149B9801860
S11306708068417A01F0FB0141F0200141720020C1
S11306807047012906D180188068017841F0800103
S11306900170F4E74FF0FF3070474001514A83582E
S11306A0012B01D1022900D3F4E7801880680029C6
S11306B002BF417A41F03001417203D0417E41F0E2
S11306C03001417600207047F8B5044606980025AD
S11306D06401444EA759012F06D109B94FF0FF35E3
S11306E00AB94FF0FF3513B94FF0FF350EE078B972
S11306F01F78112FF8D2002FF6D03DB9A41921612B
S11307006261A36101462046FFF7D4FE2846F2BD8C
S11307100128E9D11F78052FE6D2ECE7002052E743
S113072000206CE70146002084E70146002098E79A
S113073001460020B1E780B5009313460A460146FE
S1130740002018E02948006800F00F010020DFE6CF
S1130750012038E7012052E7014601206AE70146FB
S113076001207EE70146012097E780B500931346F8
S11307700A4601460120FFF7A7FF02BD1C48006896
S113078000F00F010120C3E602201CE7022036E737
S1130790014602204EE70146022062E7014602209C
S11307A07BE780B5009313460A4601460220E2E740
S11307B01048006800F00F010220A9E69C07002001
S11307C0580500208803002000350340043003400E
S11307D0043103400101000080E200E000E100E098
S11307E019E400E00C04002080E100E078100340EC
S11307F07C10034080100340DFF89005FF21016066
S1130800DFF88C05016821F400410160416821F49E
S11308107F414160816821F4F8718160016921F4AC
S113082040710161DFF86C05016821F40041016049
S1130830416821F47F414160816821F4F87181604D
S1130840016921F4407101614021DFF84C0500F099
S1130850B1BA0000DFF83425FF231360102880F0BC
S11308600C82002940F024810F2800F22181DFE866
S113087010F010002100320043005400650076009F
S113088087009800A900BA00CB00DC00ED00FE0050
S11308900F01DFF8FC04016821F400410160DFF876
S11308A0F404016821F400410160DFF8EC04002144
S11308B001607047DFF8D804416821F400514160B9
S11308C0DFF8D004416821F400514160DFF8C80426
S11308D0002141607047DFF8B804816821F01001FD
S11308E08160DFF8B004816821F010018160DFF8D5
S11308F0A804002181607047DFF89404416821F462
S113090080514160DFF88C04416821F480514160DA
S1130910DFF884040021C1607047DFF87404816843
S113092021F020018160DFF86C04816821F020014E
S11309308160DFF86404002101617047DFF850042E
S1130940416821F400614160DFF84804416821F402
S113095000614160DFF84004002141617047DFF825
S11309603004816821F040018160DFF82804816847
S113097021F040018160DFF820040021816170478B
S1130980DFF80C04416821F480614160DFF804045D
S1130990416821F480614160DFF8FC030021C161FA
S11309A07047DFF8EC03816821F080018160DFF893
S11309B0E403816821F080018160DFF8DC03002119
S11309C001627047DFF8C803416821F40071416097
S11309D0DFF8C003416821F400714160DFF8B80317
S11309E0002141627047DFF8A803816821F4807117
S11309F08160DFF8A003816821F480718160DFF8F1
S1130A009803002181627047DFF88403416821F470
S1130A1080714160DFF87C03416821F4807141609A
S1130A20DFF874030021C1627047DFF86403416892
S1130A3021F400414160DFF85C03416821F4004186
S1130A404160DFF85403002101637047DFF840037D
S1130A50016921F480710161DFF83803016921F42F
S1130A6080710161DFF83003002141637047DFF8D2
S1130A702003416821F480414160DFF81803416894
S1130A8021F480414160DFF8100300218163704745
S1130A90DFF8FC02016921F400710161DFF8F4025E
S1130AA0016921F400710161DFF8EC020021E3E047
S1130AB0012940F0E2800F2800F2DF80DFE800F037
S1130AC00815222F3C495663707D8B99A7B4C2CF79
S1130AD0AF48016821F400410160AE48016841F467
S1130AE000410160AC480121E2E6A948416821F4D3
S1130AF000514160A748416841F400514160A64853
S1130B000121E6E6A248816821F010018160A14834
S1130B10816841F0100181609F480121EAE69C4808
S1130B20416821F4805141609A48416841F4805100
S1130B30416099480121EEE69548816821F0200141
S1130B4081609448816841F02001816092480121CC
S1130B50F2E68F48416821F4006141608D484168A4
S1130B6041F4006141608C480121F6E688488168BF
S1130B7021F0400181608748816841F04001816033
S1130B8085480121FAE68248416821F48061416088
S1130B908048416841F4806141607F480121FEE65C
S1130BA07B48816821F0800181607A48816841F046
S1130BB0800181607848012102E77548416821F489
S1130BC000714160734841684FF400721143416001
S1130BD07148012105E76E48816821F480718160C4
S1130BE06C4881684FF48072114381606A48012126
S1130BF008E76748416821F48071416065484168AD
S1130C004FF4807211434160634801210BE760484F
S1130C10416821F4004141605E48416841F400416B
S1130C2041605D4801210FE75948016921F4807151
S1130C300161584801694FF48072114301615648BB
S1130C40012112E75248416821F480414160514832
S1130C50416841F4804141604F48012116E74C4806
S1130C60016921F4007101614A4801694FF400727D
S1130C701143016148480121C163704710283FD2E4
S1130C8001B10121444A52F82020012A38D10F2809
S1130C9036D8DFE800F0080B0E1114171A1D2023B4
S1130CA026292B2D30333D48016070473B4881672E
S1130CB070473B484165704738484167704738483A
S1130CC0816570473548016770473548C16570478D
S1130CD03248C16670473248016670472F488166C2
S1130CE070472F48416670472C48FBE72C48DBE7E8
S1130CF02C48016070472948C16770472948416002
S1130D0070470000102802D34FF0FF307047224A8A
S1130D1052F82020002A37D10F2835D8DFE800F018
S1130D20080B0E1114171A1D202326292B2D2F32E0
S1130D301D48016828E01C48816F25E01B48416D6F
S1130D4022E01948416F1FE01848816D1CE01648E5
S1130D50016F19E01548C16D16E01348C16E13E028
S1130D601248016E10E01048816E0DE00F48416E8C
S1130D700AE00D48FBE70D48DBE70D48D9E70A48D0
S1130D80C16F01E00A4841680846704700350340D6
S1130D9000300340003203405C0700203C80664280
S1130DA0BC806642208266423C606642BC60664209
S1130DB020626642002200F015B850F8041B61B1AD
S1130DC050F8042BD30744BFA9F101039A18002358
S1130DD042F8043B091FFAD1EFE7704762F30F2290
S1130DE062F31F4200B5130096469446103928BF9B
S1130DF0A0E80C50FAD85FEA417C28BF0CC048BF79
S1130E0040F8042BC90728BF20F8022B48BF00F87C
S1130E10012B00BD01B481B0019842F21071484326
S1130E2001900198411E019140B10A200090009860
S1130E3000281CBF0098401EF8D1F2E702B07047AA
S1130E4070B58AB006460C46154600A80FF250410C
S1130E50282200F0B6FA00200A2D04D0102D08D064
S1130E604FF0FF302DE0002E03D576422D20207068
S1130E700120B6FBF5F105FB116200ABD25C025513
S1130E80401C0E00F5D10021015521782D290CBFFD
S1130E90012100210A46431E03EBD3756D109542D0
S1130EA00EDB0818401E801A0019111906E00C7890
S1130EB0067801F8016B00F80149521C9542F6DAF4
S1130EC000200AB070BD80B500F0DBFA00F008FB2A
S1130ED000F003F800F0A2F8FCE710B5ED4800219B
S1130EE001604160EC4C206801600A20FFF792FF2A
S1130EF06068002101600A20FFF78CFFA0680021D0
S1130F0001600A20FFF786FFE068002101600A20E3
S1130F10FFF780FF2069002101600A20FFF77AFFB4
S1130F206069002101600A20FFF774FFA0690021B5
S1130F3001600A20FFF76EFFE069002101600A20CA
S1130F40FFF768FF206A002101600A20FFF762FFB3
S1130F500920012254F8041B0A60401EFAD14FF400
S1130F60AD71002000F014FB0FF25C31002000F0A2
S1130F70CDFB4FF4AD71032000F00AFB4FF4AD71CB
S1130F80062000F005FB462241F66411002000F023
S1130F900DFC002000F08EFC00210020FFF75AFC1D
S1130FA000210220FFF756FC00210420FFF752FC29
S1130FB000210620FFF74EFC00210820FFF74AFC21
S1130FC000210A20FFF746FC00210C20FFF742FC19
S1130FD000210E20FFF73EFC01210846FFF73AFCF2
S1130FE001210320FFF736FC01210520FFF732FC25
S1130FF001210720FFF72EFC01210920FFF72AFC1D
S113100001210B20FFF726FC01210D20FFF722FC14
S113101001210F20BDE81040FFF71CBC7CB50A205D
S1131020FFF7F8FE9B4E3068401CB0F57A7FC8BFCE
S11310300020306001469848052291FBF2F202EB51
S11310408202891A012909D1016A0A6882F001021F
S11310500A6081680A6882F001020A608F490A689E
S1131060521E9241D243D20F03681A604A68521E3C
S11310709241D243D20F83691A600A69521E924187
S1131080D243D20F43681A604A69521E9241D24336
S1131090D20F43691A608A68521E9241D243D20F1A
S11310A0C3691A60CA68521E9241D243D20FC36800
S11310B01A608969491E8941C943C90F00690160E1
S11310C00FF27C21032000F021FB0FF2A021062067
S11310D000F01CFB6CA42146002000F017FB0FF26B
S11310E0B821002000F012FB0120FFF74BF80A2280
S11310F000A9FFF7A5FE00A9002000F007FB63A5E7
S11311002946002000F002FB3068642190FBF1F2D4
S113111001FB1200012813D170680A307060A12805
S1131120A4BF0A20706001DA642801DA726801E061
S1131130C0F1B402D2B241F66411002000F0D8FB31
S11311400FF25C21002000F0E1FA01210120FFF7F9
S113115095FD01210320FFF791FD01210520FFF7F3
S11311608DFD01210720FFF789FD00210920FFF7EC
S113117085FD00210B20FFF781FD00210D20FFF7E5
S11311807DFD00210F20FFF779FD0020FFF7BAFD58
S11311900A2200A9FFF754FE00A9002000F0B6FAC5
S11311A03BA63146002000F0B1FA0220FFF7AAFD69
S11311B00A2200A9FFF744FE00A9002000F0A6FAC5
S11311C03146002000F0A2FA0420FFF79BFD0A221A
S11311D000A9FFF735FE00A9002000F097FA314678
S11311E0002000F093FA0620FFF78CFD0A2200A9E4
S11311F0FFF726FE00A9002000F088FA31460020FF
S113120000F084FA0820FFF77DFD0A2200A9FFF709
S113121017FE00A9002000F079FA3146002000F002
S113122075FA0A20FFF76EFD0A2200A9FFF708FEEF
S113123000A9002000F06AFA3146002000F066FAA6
S11312400C20FFF75FFD0A2200A9FFF7F9FD00A9B2
S1131250002000F05BFA3146002000F057FA0E201F
S1131260FFF750FD0A2200A9FFF7EAFD00A90020BC
S113127000F04CFA2946002000F048FA21460020EC
S113128000F044FA73BD00000D0A00007C7C0000ED
S11312902E000000B4070020C40400200863664246
S11312A03031323334353637383941424344454698
S11312B04748494A4B4C4D4E4F5051525354555642
S11312C05758595A000000000D0A57656C636F6D3A
S11312D06520796F75206A6F696E20746865205483
S11312E073696E6768756120456D626564646564E1
S11312F020437572726963756C756D210D0A5541D1
S11313005254206F6620426C7565746F6F74682048
S11313106173206265656E20696E697469616C69C8
S11313207A65642E2E2E0D0A506C656173652070EB
S11313307265737320616E796B65792E0D0A0000F6
S11313400D0A54686973204D65737361676520697C
S1131350732073656E642066726F6D204A31352088
S1131360746F204A31362E2E2E0D0A000D0A546851
S11313706973204D657373616765206973207365B4
S11313806E642066726F6D204A313620746F204A75
S113139031352E2E2E0D0A00412F443A0000000054
S11313A04750494F3A0000004AB38B0707D0521EFA
S11313B011F8013B00F8013B21D08B07F7D18307DB
S11313C01ED1103A07D330B4B1E83810103AA0E86F
S11313D03810F9D230BC530724BFB1E80810A0E894
S11313E0081044BF51F8043B40F8043BD20724BF23
S11313F031F8022B20F8022B44BF0B78037070479E
S1131400083A07D3B1E80810083A40F8043B40F81A
S113141004CBF7D25307E4E770B42B48011D08222C
S11314200B681BB11C880CB1641E1C80091D521E64
S1131430F6D101784A1E71B903222449244B0924A8
S11314400D7825B11D682E6886F001062E601B1DDF
S1131450491C641EF4D1027041784A1E71B91922E4
S11314601C491B4B09240D7825B11D682E6886F094
S113147001062E601B1D491C641EF4D1427070BC11
S1131480704710B584B001208DF800008DF801007C
S11314908DF8020000208DF8030046F2A810019098
S11314A002900D4803900D4C0121204600F038FABB
S11314B040B9002200A9204600F04CFA0021204641
S11314C000F0FFFA04B010BDE8040020AC040020D2
S11314D0C4040020B8040020191400000050014086
S11314E080B500F013FB00F021FBFFF785F91F48DE
S11314F0002101704FF4AD71002000F049F84FF461
S1131500AD71032000F044F841F24501062000F0DB
S11315103FF81749012000F027FB072000F0A3FB48
S1131520A521012000F039FC9621012000F035FCB2
S1131530FF21012000F031FC8021012000F02DFC6E
S11315404021012000F029FC2021012000F025FC8D
S11315501021012000F021FC19220FF218010120B2
S113156000F045FCBDE8014000F0F2B8AC070020F3
S1131570A086010054657374206461746120666FF1
S11315807220535049207472616E666572000000C7
S113159010B4072800F29D80DFE800F004364C59AF
S11315A09B1B6F85DFF88C21136843F006031360DF
S11315B0DFF88421136823F47C734FF4A874234365
S11315C013605E4A802313605D4A13605D4AA02362
S11315D013705D4A52F8203080245C7052F8203039
S11315E001241C7052F8203080245C7152F82030A1
S11315F000241C7152F82020918113215170534909
S11316004454012010BC70474A4AD36843F0C003D5
S1131610D360494A136823F47C4343F4A84313601A
S11316204FF40072454B1A60454B1A60454AA0239B
S11316309370CEE73F4A536943F00C0353613E4A2B
S1131640136823F4702343F4A0231360C1E7394AD9
S1131650D36843F00703D360374A136823F07C63ED
S113166043F0286313604FF40052344B1A60344B38
S11316701A60344AA0239371ABE72E4AD36843F02F
S11316803803D3602C4A536823F47C1343F4A8131F
S113169053604FF40022294B1A60294B1A60294ADF
S11316A0A023137395E7234AD36843F46063D3609C
S11316B0214A536823F07C6343F0A86353604FF4DA
S11316C000121E4B1A601E4B1A601E4AA02393730D
S11316D07FE7002096E71C4A52F8203093F805C0B3
S11316E05FEA8C7CFAD519817047174951F82000BC
S11316F0427938231A4204D0417941F08001417182
S1131700704700890968C0B20881704738B504463B
S11317100D460AE00A2803D10D212046FFF7DBFF1E
S113172015F8011B2046FFF7D6FF28780028F1D1D1
S113173031BD0000083003401C36034080E200E065
S113174000E100E007E400E02C050020AC070020E5
S113175010B541F6641432222146002000F026F828
S113176032222146012000F021F8322221460220B3
S113177000F01CF832222146032000F017F8322230
S11317802146042000F012F832222146052000F000
S11317900DF832222146062000F008F832222146B4
S11317A0072000F003F8012010BD000010B441F63A
S11317B09A13994201D2652A01D3002077E00728C1
S11317C0FBD8DFE800F005121B252F394650F4E75B
S11317D03E4901230B603E4900230B6001234B600B
S11317E03C490B7803F0F00349E0384901234B608E
S11317F0374900230B6201234B62F1E7334901238C
S11318008B60334900230B6401234B64314933E07B
S11318102E490123CB602E4900230B6601234B661E
S11318202C4929E0294901230B612B4900230B6032
S113183001234B602949D4E7244901234B612649FC
S113184000230B6201234B6224490B7803F0F0035D
S113185015E0234901230B601F4900230B64012376
S11318604B641E4908E01F4901230B601A490023F9
S11318700B6601234B6619490B7803F00F030B70B9
S1131880194951F8203041F212049C8100245C74FF
S113189051F820301C7451F820004FF43441018079
S11318A0124951436422B1FBF2F18180012010BC42
S11318B0704700000C4951F82000818941F0020171
S11318C08181818941F0010181817047A8016642CB
S11318D008C266420151024088C266420153024076
S11318E0300066420C0166420C05002000B4C404BA
S11318F05CE7000038B504460D462069C00705D5ED
S11319000020E0602868010018BF8047206BC007F2
S113191005D50020E0626868010018BF804731BD2A
S1131920002801D104207047734A1368984202D1F9
S113193000235360936001290AD17049884207D17A
S11319406F48402101606F4801606F48A021017019
S1131950002070471CB401AB00241C6000AB1C6069
S113196000B109B90420AAE0634B1C68A042F9D174
S1131970002A4FD182600A781AB1022A0DD008D306
S1131980F0E7019A22F040020192019A52085200B3
S11319900AE0019A42F04002F6E7019A22F040027E
S11319A00192019A42F0010201924A781AB1022A84
S11319B00DD008D3D6E7019A22F004020192019ACD
S11319C022F008020AE0019A42F00402F6E7019AC2
S11319D022F004020192019A42F0080201928A78EC
S11319E0019C62F3410401944A688C7834B9B2F5DD
S11319F0803FB7D28C68B4F5803FB3D202608A6866
S1131A008261CA78019C62F3C71401948460C86837
S1131A10586053E0012AA5D1002282620A781AB1E3
S1131A20022A0DD008D39DE7009A22F040020092CA
S1131A30009A520852000AE0009A42F04002F6E787
S1131A40009A22F040020092009A42F001020092B1
S1131A504A781AB1022A0DD008D383E7009A22F0FB
S1131A6004020092009A22F008020AE0009A42F06E
S1131A700402F6E7009A22F004020092009A42F06F
S1131A80080200928A78009C62F3410400944A6838
S1131A908C7844B9B2F5803FBFF464AF8C68B4F578
S1131AA0803FBFF45FAF02628A688263CA78009C99
S1131AB062F3C71400948462C8689860002016BC5E
S1131AC07047002801D104207047002908D181689B
S1131AD041F020018160816841F08001816009E06A
S1131AE00129F0D1816A41F020018162816A41F0CB
S1131AF080018162002070474C05002000500140A5
S1131B0080E200E000E100E006E400E0054801684E
S1131B1021F4FE7101600448016821F4FE71016042
S1131B20704700BF18300340183203400A480921A7
S1131B30012350F8042B1360491EFAD107480168A9
S1131B40074A114001600748016841F4DE4141F051
S1131B50E001016070470000C4040020003003402D
S1131B601F90FFFF0032034010B4012806D0032861
S1131B7041D0062851D0072861D072E0DFF828232D
S1131B8013684FF4E07423431360DFF820231368D1
S1131B9023F47C4343F4A8431360DFF814230123A4
S1131BA09360DFF810239360DFF80C2352F82030A1
S1131BB04F241C7052F82030A0245C7052F820305E
S1131BC080245C7152F8203000241C7152F82020CB
S1131BD0DFF8E83203EB5103B3FBF1F1491E9181C5
S1131BE0517841F003015170DFF8D41201224254BC
S1131BF0012010BC7047AC4A136843F0070313601C
S1131C00AA4A136823F07C6343F028631360A84A4C
S1131C1001231360A74A1360C6E7A34A136843F07D
S1131C2038031360A14A536823F47C1343F4A813C4
S1131C3053609F4A012353609E4A5360B4E79A4A13
S1131C40136843F460631360984A536823F07C6319
S1131C5043F0A8635360964A0123D360954AD36046
S1131C60A2E70020C5E7012806D003283FD00628B4
S1131C7059D0072873D08EE08B490A684FF4E0737B
S1131C801A430A6089490A6822F47C4242F4A84251
S1131C900A60874901228A60864900228A604FF4DB
S1131CA00071884A1160884A11608849A0220A702C
S1131CB0814951F820204D23137051F82020F0233E
S1131CC0537051F820208023537151F820200023B1
S1131CD0137151F8201047F6FF728A814A7842F056
S1131CE003024A70764902224254012070476E4929
S1131CF00A6842F007020A606C490A6822F07C62B2
S1131D0042F028620A606A4901220A606949002295
S1131D100A604FF400516B4A11606B4A11606B49C1
S1131D20A0220A71C4E760490A6842F038020A60D6
S1131D305E494A6822F47C1242F4A8124A605C4963
S1131D4001224A605B4900224A604FF400215D4A47
S1131D5011605D4A11605D49A0228A72A8E7524968
S1131D600A6842F460620A6050494A6822F07C6260
S1131D7042F0A8624A604E490122CA604D490022DD
S1131D80CA604FF400114F4A11604F4A11604F4925
S1131D90A0220A738CE700207047082800D37047FC
S1131DA078B4454A02EB80031C6A002525600A24A6
S1131DB00125ADF80050641EBDF800506E1EADF84C
S1131DC00060002DF8D1002CF2D152F82040657942
S1131DD0AD07FAD521816079C007FCD46079C007CA
S1131DE0FCD52089D8690121016071BC704702B912
S1131DF070472DE9F84103462F4C04EB8305521E2E
S1131E000E7808282AD204F1200757F823704FF0DF
S1131E10000CC7F800C00A274FF0010EADF800E02F
S1131E207F1EBDF800E0AEF10108ADF80080BEF100
S1131E30000FF6D1002FEFD154F8237097F805C0A6
S1131E405FEA8C7CF8D53E817E79F607FCD47E79F6
S1131E50F607FCD53E89EE6901273760491CD2B2EA
S1131E60002ACCD1BDE8F18170B50546124E56F872
S1131E7025000189164C207802191171401C20702C
S1131E80C9B20020FFF727FC607856F82510021924
S1131E9092F804210A81401CC0B2202808BF002007
S1131EA0607070BD00000000143003401C36034015
S1131EB080816642804166426C04002000B4C40400
S1131EC0AC07002080E200E000E100E009E400E06B
S1131ED00000002081B0002100914FF4C2710A4A31
S1131EE002E0009B5B1C0093009B53B9009B01FB29
S1131EF003231B689842F4D1009801FB0020001DC5
S1131F0000E0002001B070470402002038B5044608
S1131F100D4602201FE0002180F87110009800EBAC
S1131F20C00105EB810090F871000128009800EBD6
S1131F30C00105EB8100EED0806E50B10098C0B2B4
S1131F4000EBC00105EB810202F154012046926EC0
S1131F5090470098401C0090009895F850108842D3
S1131F6016D2009800EBC00105EB8100806D00885B
S1131F7000F480600128ECDB009800EBC00105EB65
S1131F808100806D008800F480400128E1DBC5E712
S1131F9031BDF0B583B004460D466878002800F0E2
S1131FA0FD8094F84000C0070AD594F8400000F082
S1131FB0FE0084F84000A86810B12046A96888474C
S1131FC0201D018C890504D5018C4FF6FF52114068
S1131FD0018404F2400694F84000800706D5308955
S1131FE0400403D4308940F4804030813089400576
S1131FF023D53089400420D594F8400080070BD5C0
S113200094F8400000F0FD0084F84000E868A0B1B6
S11320102046E968884710E03089D5F88C0030B153
S113202005F178012046D5F88C20904705E03089E9
S113203030894FF6FF3108403081B088400509D51A
S1132040B088400406D5A86E20B105F1540120469D
S1132050AA6E904794F8400040070AD594F84000CF
S113206000F0FB0084F84000686910B120466969FB
S1132070884794F84000000733D594F8400000F0F6
S1132080F70084F8400095F85000019047F6FF707F
S113209016E0019901EBC10205EB82014A6B12883B
S11320A042F40042496B0A80019901EBC10205EB3D
S11320B08201496B0A8802400A800199491E0191F4
S11320C001990029E5D1B0884BF6FF710840B08032
S11320D0308940F480403081A86910B12046A96954
S11320E0884794F84000C00649D594F8400000F0B1
S11320F0EF0084F84000687901283BD1012620468E
S1132100FFF7E8FE074600200BE09DF8000007EB10
S1132110C000B0F85811491EA0F858119DF80000ED
S1132120401C8DF800009DF8000005281FD29DF882
S1132130000007EBC000D0F85C010028EED00026B8
S11321409DF8000007EBC000B0F858010028DCD16E
S113215020469DF8001007EBC101D1F85C118847B7
S11321609DF8000007EBC000C0F85C6102E00EB10E
S113217000207871E86910B12046E969884794F82D
S1132180400080060AD594F8400000F0DF0084F88F
S11321904000286910B1204629698847287800281A
S11321A000F095802079C00747D5207900F0FE0023
S11321B02071687901283BD101262046FFF78AFE69
S11321C0074600200BE09DF8000007EBC000B0F8C4
S11321D05811491EA0F858119DF80000401C8DF8B4
S11321E000009DF8000005281FD29DF8000007EBB1
S11321F0C000D0F85C010028EED000269DF8000055
S113220007EBC000B0F858010028DCD120469DF847
S1132210001007EBC101D1F85C1188479DF800005C
S113222007EBC000C0F85C6102E00EB100207871D9
S1132230E86910B12046E96988472079800708D504
S1132240207900F0FD002071286A10B12046296A27
S113225088472079400709D5686A18B12046696A19
S1132260884703E0207900F0FB0020712079000703
S113227008D5207900F0F7002071A86A10B1204633
S1132280A96A88472079C00609D5E86A18B12046AA
S1132290E96A884703E0207900F0EF002071207993
S11322A0800608D5207900F0DF002071286B10B17A
S11322B02046296B88472079000608D5207900F04C
S11322C07F002071686B10B12046696B884703B0AA
S11322D0F0BD000080B54548007800B91AE0022836
S11322E001D100201AE0042804BF002000F082F885
S11322F001BD704780B53D48407808B9012009E028
S1132300022801D1012009E0042804BF012000F0C3
S113231071F801BDBDE80240FFF7E7B9BDE802402E
S1132320FFF7A2BD704780B53048807808B9022015
S1132330F0E7022800D1F1E7042804BF022000F0EE
S113234059F801BD704780B52848C07808B9032002
S1132350E0E7022801D10320E0E7042804BF0320BA
S113236000F048F801BD704780B52048007908B9ED
S11323700420CFE7022801D10420CFE7042808BFB6
S113238000F038F801BD704780B51848407908B9A5
S11323900520BFE7022801D10520BFE7042804BFB8
S11323A0052000F027F801BD704780B50F488079FB
S11323B008B90620AEE7022801D10620AEE70428BA
S11323C004BF062000F016F801BD704780B5074829
S11323D0C07908B907209DE7022801D107209DE7AD
S11323E0042804BF072000F005F801BDAC07002055
S11323F070470000704700002248234901602349C8
S113240001602348002101701D48017401210175F8
S11324108121017601771F4983220A7000220A7202
S11324205C220A74027842F0020202700279920776
S1132430FCD500220A750A7613220A77017841F046
S1132440100101700179C906FCD5017841F0400101
S113245001700178027902F0E00201F0E0018A42A1
S1132460F7D140F2FF300C490A680240824206D09C
S11324700A480B4A82600968018000218160704724
S113248000000140001C014051E5CC1AAE1A33E5AE
S113249008100140200001400001004004E0024017
S11324A054E5CC1A2DE9F04100F10801026801EB72
S11324B0820243685808400002EB80000024002593
S11324C0264601270CE014F8018BF44506D00CF8DD
S11324D0018B761C36B2002EF7D40127F44513D1B4
S11324E0824201D1BDE8F08152F804CB5FEAC37E99
S11324F048BFCC4452F804EBE644EFE70C68641898
S1132500091D51F8045B2D19AC42F7D05FB114F9E1
S1132510016B002705E00C686418091D51F8045B81
S11325202D19AC42F7D0002ECDD436B2002ED4D41F
S1132530F44518BFAC421EBF14F8018B0CF8018B94
S1132540761EF2D1CAE7000007490848FFF7D2B95E
S113255000E0000006490748FFF7D8BC00E000008F
S113256003490448FFF715BD500500200050014001
S1132570080200200021044010B5084979441C31A8
S1132580074C7C441A34A14206D0081D0A6851182D
S113259088470146A142F8D110BD00BF08000000E1
S11325A03000000017E8FFFF640200005805002017
S11325B000000000F1FEFFFF020000000200000026
S11325C03C010000700100000000002058050000DC
S11325D00120C046002801D0FFF7CEFF0020FEF7FF
S11325E072FC00F000F880B500F002F800BF0000B3
S11325F00746384600F002F8FBE7000001491820BE
S1132600ABBEFBE7260002000148804701480047B3
S1132610F923000019260000C046C046C046C04643
S1132620FFF7D6FFFFF7FEBFFFF7FEBFFFF7FEBFC2
S1132630FFF7FEBFFFF7FEBFFFF7FEBFFFF7FEBFCA
S1132640FFF7FEBFFFF7FEBFFFF7FEBFFFF7FEBFBA
S1132650FFF7FEBFFFF7FEBFFFF7FEBFFFF7FEBFAA
S1132660FFF772BFFFF736BEFFF743BEFFF742BE68
S1132670FFF758BEFFF757BEFFF764BEFFF763BE10
S1132680FFF771BEFFF770BEFFF77DBEFFF77CBE9C
S1132690FFF78ABEFFF789BEFFF797BEFFF796BE26
S11326A0FFF7A6BEFFF7FEBFFFF7FEBFFEF74AB86F
S11326B0FEF764B8FEF77CB8FFF7FEBFFFF7FEBF76
S11326C0FFF7FEBFFFF7FEBFFFF7FEBFFFF7FEBF3A
S11326D0FFF73EBFFFF742BFFFF7FEBFFFF7FEBFA6
S11326E0FFF7FEBFFFF7FEBFFFF7FEBFFFF7FEBF1A
S11326F0FFF7FEBFFFF7FEBFFFF7FEBF81008100BB
S1132700FA001E0D0A53504920536C6176657220FD
S11327106F757470757420666F722074657374219C
S11327200D0A81009D000221044081008100810086
S1132730F9000002FB00018080FC00151D07000069
S113274021070000250700002B07000031070000C7
S11327503707F6000002FB00018080FC00155107DA
S1132760000055070000590700005F0700006507D7
S113277000006B07F6000002FB00018080FC0015DE
S1132780890700008D0700009107000097070000EB
S11327909D070000A307F100067002408803002093
S11327A0F4000019F40006710240B4030020F400A0
S11327B0001AF40006720240E0030020F400001B3B
S11327C0FC001E800340008103400082034000831C
S11327D003400084034000850340008603400087D3
S11327E00340FC000388816642FC0003808166424A
S11327F0F80007848166428C816642E800251480D3
S11328006642188066421C806642208066422480AC
S11328106642288066422C80664234806642388054
S113282066420319DD00425002404050024080508D
S11328300240C050024000520240405202408052C6
S11328400240C052024000800340008103400082E5
S11328500340008303400084034000850340008656
S10F286003400087034000500140F800D2
S9032619BD
