:020000041FFFDC
:10800000880E002079B4FF1FB9B4FF1FBDB4FF1F55
:10801000C1B4FF1FC5B4FF1FC9B4FF1F000000009B
:10802000000000000000000000000000CDB4FF1FB1
:10803000D1B4FF1F00000000D5B4FF1FD9B4FF1F4B
:10804000DDB4FF1FE1B4FF1FE5B4FF1FE9B4FF1F5C
:1080500043A3FF1FB3A3FF1FADB2FF1F1DAEFF1F42
:108060004FAEFF1F51AEFF1F83AEFF1F85AEFF1F38
:10807000B7AEFF1FB9AEFF1FEBAEFF1FEDAEFF1F88
:108080001FAFFF1F21AFFF1F53AFFF1F55AFFF1FD4
:1080900087AFFF1F89AFFF1FC1AFFF1F39B5FF1F9C
:1080A0003DB5FF1F018BFF1F678BFF1FCD8BFF1F90
:1080B0004DB5FF1F51B5FF1F55B5FF1F59B5FF1F28
:1080C0005DB5FF1F61B5FF1FB9B2FF1FC5B2FF1F2E
:1080D0008DB5FF1F8DB5FF1F6DB5FF1F71B5FF1F5C
:1080E00075B5FF1F79B5FF1F7DB5FF1F81B5FF1F58
:1080F00085B5FF1F89B5FF1F8DB5FF1F8DB5FF1F0C
:1081000040B24109DFF8D82A012310F01F0013FA0A
:1081100000F042F82100704740B24109DFF8C42A5C
:10812000012310F01F0013FA00F042F821007047FD
:1081300040B24109DFF8B02A012310F01F0013FA02
:1081400000F042F82100704740B2002809D540B243
:1081500010F00F00DFF8942A8018090100F8041CC1
:1081600004E040B2DFF8882A09018154704710B555
:10817000DFF8801A0968491CDFF8782A11600128A5
:1081800008D0022842D0042845D008284BD0102817
:108190004FD053E0DFF8600A01210170DFF85C0A7C
:1081A0000068772803DBDFF8540A00210160002310
:1081B000DFF8442ADFF8440A0068DFF8441A11EBBC
:1081C0004001DFF8380A0068DFF8384A14EB400055
:1081D000DFF8344A646AA047DFF8201A0968DFF83C
:1081E000242A32F8111089B2090989B2DFF81C2A51
:1081F0001160002809D1DFF8040A0068DFF8F819D7
:1082000009780818DFF8F419086017E0DFF8E809C2
:108210000121017012E0DFF8F8090068401CDFF866
:10822000F01908600AE00020DFF8DC19096A8847C5
:1082300004E00120DFF8D019096A884710BD70B545
:10824000DFF8C449DFF8CC19FF220A60DFF8C8194B
:10825000DFF8C42912680A60DFF8C019DFF8BC290A
:1082600012680A60C0B2256820606068400840005B
:108270006060606830F002006060606830F03C0070
:1082800060600920A16860F3CF21A1600120A1688E
:1082900060F3D741A160A06830F4E020A060DFF86F
:1082A0008009A0621920FFF743FF1920FFF728FF7C
:1082B0000F211920FFF748FF1A20FFF739FF1A2076
:1082C000FFF71EFF0F211A20FFF73EFF1B20FFF7CD
:1082D0002FFF1B20FFF714FF0F211B20FFF734FF98
:1082E0000020DFF82419096A88470600DFF8200912
:1082F00000210160DFF8FC0800210160DFF8FC08C4
:10830000002101602069804706000020A16988479C
:108310000600DFF8E00800680128FADB0120E169C7
:1083200088470600606980470600DFF8E0080068BB
:1083300070BD30B40021C2681268B2F5803F01D32D
:108340005FF0FF31C2685268C2F34442102A01D381
:108350005FF0FF31C268127AD2B2082A01D35FF00F
:10836000FF31C2689268C2F3C422102A01D35FF0C1
:10837000FF31C2685268C2F34422102A01D35FF071
:10838000FF31C268D268B2F5803F01D35FF0FF31A0
:1083900002790B2A03D300225FF0FF3105E0027956
:1083A000002A01D0022200E0002243790B2B03D3E4
:1083B00000235FF0FF3105E04379002B01D0022359
:1083C00000E00023002940F0B1808468C5682D6872
:1083D0002575C4682468240A85686C75C468246897
:1083E000240C85682C74C4682468240E85686C7419
:1083F000C4686468640AC5686D68C5F3821555EA87
:10840000C404856885F82040C468A468240CC56845
:10841000AD68C5F3C44555EA4414856885F8314014
:10842000C468A468240EC568AD68ED0E55EA44140E
:10843000856885F830408468C568ED6884F82C50FC
:10844000C468E468240A856885F82D40C468E46837
:10845000240C856885F82840C468E468240E856883
:1084600085F829408468C568AD6884F83450C468CC
:108470006468C4F3830485682C72C4686468E40B80
:1084800014F0030485682C76C4686468C4F340045F
:1084900085682C70C4686468A40DA4018568EC84A8
:1084A000C468A468240AC568AD68C5F38025AD0119
:1084B00055EAC414C568AD68C5F3402554EA4514AF
:1084C000C5686D68C5F344452C43856885F824402C
:1084D0008468057984F839508468457984F838507F
:1084E000C468A468E40A14F01F0485686C70C4684A
:1084F000247914F00104A400224352F0100284688D
:108500006272C2685268C2F3803292001A43837961
:108510001A4352F0100283685A768268012382F867
:108520003C30826892F83C209207FAD5080030BCB3
:10853000704710B50400A068002180F83C10A068C6
:1085400090F83C008007FAD4A06800214172A0682E
:1085500000214176A06800780721084202D020005F
:1085600000F099F8A06800214170002020610020EF
:10857000A061E06800210160E068406840084000B8
:10858000E1684860E068406850F00200E1684860D7
:10859000E068406830F03C00E1684860E0684068AE
:1085A00030F4E070E1684860E068406830F478508A
:1085B000E1684860E068406830F48040E168486005
:1085C000E068406830F4C030E1684860E0684068C6
:1085D00030F47810E1684860E06840688002800A02
:1085E000E1684860E0688068000A0002E16888602D
:1085F000E068806830F48070E1688860E0688068D6
:1086000030F40070E1688860E068806830F4806071
:10861000E1688860E068806830F47840E1688860EC
:10862000E068806830F4E020E16888601020E1684C
:10863000896860F3D741E0688160E068806830F065
:10864000E060E16888601020E168896860F3DF61BC
:10865000E0688160E0680021C160E068002181621B
:1086600010BDC9B2002906D18168497A51F02101B3
:108670008068417205E08168497E51F0210180687F
:10868000417670478168497A11F0FB0151F0200171
:108690008068417270478168097851F08001806874
:1086A00001707047C9B2002906D18168497A51F03A
:1086B00030018068417205E08168497E51F03001E7
:1086C00080684176704710B4C9B200291CD1816915
:1086D00091F9002000210CE049B243698468A48923
:1086E00023F8114049B203698468E48923F81140F2
:1086F000491C49B252B2914203DA83689B89DB0478
:10870000EAD5806901701BE0816991F900200021A0
:108710000CE049B243698468A48B23F8114049B244
:1087200003698468E48B23F81140491C49B252B2B2
:10873000914203DA83689B8BDB04EAD58069017080
:1087400010BC704738B504000D00E80723D5E4B22B
:10875000DFF8D00410EB44108068E4B2DFF8C414F2
:1087600011EB44118968497811F0BF0151F0A00163
:108770004170E4B2DFF8AC0410EB4410C068806ACA
:10878000002808D00220E4B2DFF8981411EB44115D
:10879000C968896A8847A80723D5E4B2DFF884044A
:1087A00010EB44108068E4B2DFF8781411EB441148
:1087B0008968497811F07F0151F060014170E4B29D
:1087C000DFF8600410EB4410C068806A002808D00D
:1087D0000120E4B2DFF84C1411EB4411C968896A36
:1087E0008847680755D5E4B2DFF8380410EB441029
:1087F0008068407A800621D5E4B2DFF8280410EBC7
:1088000044108068E4B2DFF81C1411EB441189684D
:10881000497A11F0DF014172E4B2DFF8080410EB8D
:108820004410C068806A002808D00820E4B2DFF84D
:10883000F41311EB4411C968896A8847E4B2DFF880
:10884000E40310EB44108068407E800621D5E4B23A
:10885000DFF8D00310EB44108068E4B2DFF8C413F3
:1088600011EB44118968497E11F0DF014176E4B2D1
:10887000DFF8B00310EB4410C068806A002808D00D
:108880001020E4B2DFF89C1311EB4411C968896A27
:108890008847280723D5E4B2DFF8880310EB44109B
:1088A0008068E4B2DFF87C1311EB441189684978E1
:1088B00011F0DF0151F0C0014170E4B2DFF8640350
:1088C00010EB4410C068806A002808D00420E4B28D
:1088D000DFF8501311EB4411C968896A884731BD2C
:1088E00038B50400E4B26001CE494058002816D1E2
:1088F000E4B2CC4810EB4410FFF71BFD0500002D3F
:108900000FD1E4B2C74810EB441090F91C00FFF7F8
:10891000F7FBE4B26001C3490122425001E05FF07D
:10892000FF35280032BD10B50400E4B26001BD4936
:108930004058012814D1E4B26001BA4900224250E3
:10894000E4B2B84810EB441090F91C00FFF7E4FBC8
:10895000E4B2B44810EB4410FFF7EBFD002001E057
:108960005FF0FF3010BD80B5C0B24201AD4BD258B0
:10897000012A0ED1C9B2022902D35FF0FF300AE00A
:10898000C9B2C0B2A74A12EB4010FFF76AFE00203E
:1089900001E05FF0FF3002BD80B5C0B24201A14BE3
:1089A000D258012A18D1C9B2002907D1C0B29D49B5
:1089B00011EB4010FFF766FE00200FE0C9B201295D
:1089C00007D1C0B2974911EB4010FFF764FE0020B9
:1089D00004E05FF0FF3001E05FF0FF3002BD80B5E2
:1089E000C0B242018F4BD258012A0ED1C9B202291E
:1089F00002D35FF0FF300AE0C9B2C0B2894A12EB7D
:108A00004010FFF74FFE002001E05FF0FF3002BD95
:108A1000F8B5069C0025C0B24601824FF659012EDA
:108A200041D1002901D15FF0FF35002A01D15FF06B
:108A3000FF35002B02D15FF0FF3519E0E4B2002CC6
:108A400008D11E78112E02D21E78002E10D15FF0B0
:108A5000FF350DE0E4B2012C08D11E78052E02D2BC
:108A60001E78002E04D15FF0FF3501E05FF0FF3586
:108A7000002D1AD1C0B26B4D15EB40152961C0B263
:108A8000684911EB40114A61C0B2664911EB4011CF
:108A90008B612100C9B2C0B2624A12EB4010FFF7ED
:108AA00012FE002501E05FF0FF352800F2BD80B521
:108AB0000020FFF715FF02BD80B50020FFF733FF50
:108AC00002BD80B50100C9B20020FFF74CFF02BD16
:108AD00080B50100C9B20020FFF75EFF02BD80B57E
:108AE0000100C9B20020FFF77AFF02BD80B5DBB2FA
:108AF000009313000A0001000020FFF789FF02BD68
:108B000080B54948006810F00F01C9B20020FFF796
:108B100019FE01BD80B50120FFF7E2FE02BD80B560
:108B20000120FFF700FF02BD80B50100C9B201209E
:108B3000FFF719FF02BD80B50100C9B20120FFF7A0
:108B40002BFF02BD80B50100C9B20120FFF747FF2E
:108B500002BD80B5DBB2009313000A0001000120C2
:108B6000FFF756FF02BD80B53048006810F00F01D6
:108B7000C9B20120FFF7E6FD01BD80B50220FFF775
:108B8000AFFE02BD80B50220FFF7CDFE02BD80B56D
:108B90000100C9B20220FFF7E6FE02BD80B5010068
:108BA000C9B20220FFF7F8FE02BD80B50100C9B2CC
:108BB0000220FFF714FF02BD80B5DBB20093130063
:108BC0000A0001000220FFF723FF02BD80B518480C
:108BD000006810F00F01C9B20220FFF7B3FD01BD1C
:108BE00000E100E080E100E080E200E018ED00E05C
:108BF00000E400E0500A0020840A0020580A002007
:108C00006406002064050020EC030020540A0020C4
:108C10004C0A002000350340043003400431034077
:108C20006F81FF1F70040020781003407C10034008
:108C30008010034001B481B0019842F210714843A2
:108C400001900198411E0191002808D00A2000904F
:108C500000980028F5D00098401E0090F8E702B078
:108C6000704780B5001E072802D3012000F00EFCDB
:108C700001BD80B5001E042802D3022000F006FCCE
:108C800001BD80B5001E132802D3032000F0FEFBB7
:108C900001BD80B5001EB52802D3042000F0F6FB0C
:108CA00001BD38B504000D002000FFF7DAFF2800F1
:108CB000FFF7DFFF032000FB045032BD70B5040056
:108CC0000D0016002000FFF7DCFF2800FFF7E1FF92
:108CD000242D08DA002030601420DFF8301700FB64
:108CE0000410006828E0482D08DA2D203060142098
:108CF000DFF8181700FB041040681DE06C2D08DA3F
:108D00005A2030601420DFF8041700FB041080683C
:108D100012E0902D08DA872030601420DFF8EC167E
:108D200000FB0410C06807E0B42030601420DFF8B6
:108D3000DC1600FB0410006970BD10B582B00400A1
:108D40000020009000AA2000FFF7B8FF0200D2B276
:108D500041F664112000C0B200F0EEFCDFF8B0066E
:108D6000009940F8241013BD2DE9F04104000D00D6
:108D700000212000FFF795FF060001212000FFF7EA
:108D800090FF070002212000FFF78BFF0400DFF8AF
:108D9000800650F82480002D02D0B8F12D0801E0A3
:108DA00018F12D082D213800FFF7C7FF872130006B
:108DB000FFF7C3FF3220FFF73DFF41462000FFF7DA
:108DC000BCFF3220FFF736FF5A213800FFF7B5FF0E
:108DD0005A213000FFF7B1FFBDE8F08170477047BE
:108DE00080B50120FFF72BFADFF828160860DFF8BE
:108DF0002806006800280DD0DFF818060268DFF8A2
:108E00001C16DFF81C0600F0AFFCDFF8141600207B
:108E100000F023FE0220FFF712FADFF8F815486091
:108E2000DFF8F405006800280DD0DFF8E805426897
:108E3000DFF8F015DFF8E80500F096FCDFF8E01544
:108E4000002000F00AFE0420FFF7F9F9DFF8C4154E
:108E50008860DFF8C405006800280DD0DFF8B4058D
:108E60008268DFF8C415DFF8B80500F07DFCDFF894
:108E7000B015002000F0F1FD01BD38B50500012955
:108E800008D0032902D0062902D005E0002406E01C
:108E9000012404E0022402E0062000F0F7FADFF8E3
:108EA0008C05006800280CD1DFF88405290240F801
:108EB0002410DFF878050068401CDFF870150860A2
:108EC00061E0DFF86805006801285CD1DFF8600523
:108ED00050F824002818DFF8581541F82400DFF86E
:108EE0005405006800284AD0DFF8440550F82400F3
:108EF0004FF47A7190FBF1F201FB12000A2190FB12
:108F0000F1F1002910D10090DFF8240550F8240079
:108F10004FF47A7190FBF1F32200DFF81C15DFF8B3
:108F2000000500F021FC25E0642190FBF1F100290F
:108F300010D10090DFF8F80450F824004FF47A7153
:108F400090FBF1F32200DFF8F414DFF8D40400F012
:108F50000BFC0FE00090DFF8D80450F824004FF429
:108F60007A7190FBF1F32200DFF8D414DFF8B0043B
:108F700000F0FAFBDFF8A814002000F06EFDDFF827
:108F8000AC040021016031BD80B500F0F6FD00F0B9
:108F90002BFE00F07CF900F001F8FCE780B55521CC
:108FA000062000F015FD3220FFF744FEDFF898049C
:108FB0000068401CDFF89014086000F00BF8FFF721
:108FC0000FFFDFF888040068002802D100F0C0F825
:108FD000FFE701BDDFF878040068002811D1DFF851
:108FE00064040068006890F00100DFF85814096814
:108FF0000860DFF84004006890F00100DFF83414E6
:109000000860DFF850040068002811D1DFF834044C
:109010004068006890F00100DFF828144968086093
:10902000DFF8F403006890F00100DFF8EC1308604B
:10903000704780B5DFF820140968DFF820248854D1
:10904000DFF814040068401CDFF80C140860DFF837
:1090500010040068401CDFF808140860DFF8F8030B
:109060000068642190FBF1F201FB1200DFF8E813C5
:109070000860DFF8F0030068DFF8DC130968884255
:1090800003D15FF0FF3000F001FA01BDDFF8D40337
:109090000068DFF8C4130968884201D120201FE06E
:1090A000DFF8BC030068401EDFF8B4130860DFF887
:1090B000B4030068DFF8A413405CDFF8A813096864
:1090C000491CDFF8A0231160DFF8981309686422B7
:1090D00091FBF2F302FB1311DFF888231160C0B299
:1090E000704710B5FFF7D2FF0100C9B23029F9D39C
:1090F000C0B23A28F6D2C0B2B0F1300404E00A217E
:109100004C43C0B230380419FFF7C0FF0100C9B2A8
:109110002029F4D1200010BD70B504000D000026F8
:10912000FFF7B4FF0100C9B22029F9D03055761CF1
:1091300001E03055761CFFF7A9FF0100C9B22029D4
:10914000F7D1AE4203DA00203055761CF9E770BD46
:109150003EB5C3480068032827DB00A80021002291
:1091600000230EC00C380A2100A8FFF7D5FF00AA83
:10917000BD49AB4800F0F8FAA949002000F06DFCA9
:109180009CA100A800F044FD00280FD1FFF7A9FF23
:1091900004002200B549A24800F0E6FA2000FFF7DB
:1091A0001DFE9F49002000F058FC37BD92A100A889
:1091B00000F02EFD00280BD1FFF793FF04002200E2
:1091C000AB49974800F0D0FA2000FFF708FEE8E727
:1091D0008AA100A800F01CFD00280BD1FFF781FF39
:1091E00004002200A3498E4800F0BEFA6042FFF757
:1091F000F6FDD6E782A100A800F00AFD002807D1FD
:109200009D49874800F0B0FA0520FFF7E8FDC8E760
:109210007CA100A800F0FCFC00281CD1FFF761FF36
:10922000122190FBF1F201FB1204FFF75AFF6421B7
:1092300090FBF1F201FB12052B0022008F497848C8
:1092400000F092FA2A00D2B241F664112000C0B2B6
:1092500000F072FAA5E76CA100A800F0D9FC002884
:1092600014D1FFF73EFF062190FBF1F201FB12043F
:10927000FFF737FF05002B0022008149684800F006
:1092800073FA29002000FFF76FFD8AE78DE710B51C
:109290006C480068002101600120FFF7CBFC6948A1
:1092A0004068002101600120FFF7C4FC6548806828
:1092B000002101600120FFF7BDFC6248C068002169
:1092C00001600120FFF7B6FC5E48006900210160E3
:1092D0000120FFF7AFFC5B484069002101600120DD
:1092E000FFF7A8FC57488069002101600120FFF7C3
:1092F000A1FC5448C069002101600120FFF79AFCDD
:109300005048006A002101600120FFF793FC002013
:1093100005E04C4951F8201001220A60401C092840
:10932000F7DB4FF4AD71002000F063FA55490020DF
:1093300000F093FB41F24501032000F05AFA41F29C
:109340004501062000F055FA41F24501012000F0E8
:1093500050FA41F24501072000F04BFA002411E0D9
:1093600049480268D2B241F664112000C0B200F050
:10937000C4F82000C0B200F08DF95A212000FFF798
:10938000DCFC641C102CEBDB0021002000F0BBFC9B
:109390000021042000F0B7FC0021062000F0B3FCFF
:1093A00000210A2000F0AFFC00210C2000F0ABFCF3
:1093B00000210E2000F0A7FC0121012000F0A3FCF9
:1093C0000121032000F09FFC0121052000F09BFCFF
:1093D0000121092000F097FC01210B2000F093FCF3
:1093E00001210F2000F08FFC00210D2000F08BFCEC
:1093F00010BD00006D760000746C000074720000F7
:1094000074610000737000006C6D00008401002026
:109410002C0900202C0A00205C0A002088B4FF1FC1
:109420006408002094B4FF1FA0B4FF1F640A00204A
:10943000380A0020600A0020F4B3FF1F10B4FF1F99
:109440002CB4FF1FD0040020780A0020740A0020EA
:10945000086366420C636642700A0020C808002058
:10946000680A00206C0A002044B4FF1FD4B3FF1F19
:109470003CB3FF1F60B3FF1F84B3FF1FE0B2FF1FA9
:1094800074B2FF1FFCB1FF1F7C0A002080B500F002
:10949000D3FF00BF80B5322241F66411002000F0F6
:1094A0002CF8322241F66411012000F026F8322215
:1094B00041F66411022000F020F8322241F66411D6
:1094C000032000F01AF8322241F66411042000F063
:1094D00014F8322241F66411052000F00EF8322211
:1094E00041F66411062000F008F8322241F66411BA
:1094F000072000F002F8012002BD30B441F69A13B3
:1095000089B2994202D2D2B2652A01D300204DE03D
:10951000C0B200280ED002285AD049D3042877D0F0
:1095200066D3062800F09480C0F08280072800F0FF
:109530009F80ADE0644B01241C60644B00241C60E0
:10954000634B01241C60634B1B7813F0F003614CE8
:109550002370C0B2604B53F8203041F212049C815A
:10956000C0B25D4B53F8203000245C74C0B25A4B3B
:1095700053F8203000241C74C0B2574B53F82030ED
:10958000564C002505FB01F5EC401C80534B002494
:10959000614333FA01F1D2B251436422B1FBF2F1DB
:1095A000C0B24D4A52F820008180012030BC704783
:1095B0004B4B01241C604B4B00241C604A4B012484
:1095C0001C60444B1B7813F0F003424C2370C0E73F
:1095D000464B01241C60464B00241C60454B012473
:1095E0001C603C4B1B7813F00F033A4C2370B0E720
:1095F000414B01241C60414B00241C60404B012462
:109600001C60344B1B7813F00F03324C2370A0E71F
:109610003C4B01241C603C4B00241C603B4B012450
:109620001C603B4B1B7813F0F003394C237090E720
:10963000384B01241C60384B00241C60374B01243C
:109640001C60334B1B7813F0F003314C237080E720
:10965000334B01241C60334B00241C60324B01242B
:109660001C602B4B1B7813F00F03294C237070E701
:109670002E4B01241C602E4B00241C602D4B01241A
:109680001C60234B1B7813F00F03214C237060E701
:1096900000208BE7C0B2104951F82010898951F0A1
:1096A0000201C0B20C4A52F820209181C0B20A498E
:1096B00051F82010898951F00101C0B2064A52F8D0
:1096C0002000818170470000A801664208C26642FE
:1096D0000CC2664201510240F404002000B4C404EC
:1096E000AC01664228C266422CC26642B0016642A4
:1096F00048C266424CC26642B401664268C26642D3
:109700006CC26642B801664288C266428CC266423A
:1097100001530240BC016642A8C26642ACC2664226
:1097200030006642C8C26642CCC266420C01664244
:10973000E8C26642ECC2664280B5D2B289B2C0B21B
:10974000FFF7DBFE01BD50F8041B61B150F8042B9C
:10975000D30744BFA9F101039A18002342F8043B40
:10976000091FFAD1EFE770470CB41CB5044604A8F2
:109770000190009401AB0A4600A9074878441830CC
:1097800000F05FFE009900220A7000285CBF00987C
:10979000001B16BC5DF80CFB6F04000040B24109D1
:1097A000DFF8E422012310F01F0013FA00F042F862
:1097B0002100704740B24109DFF8D022012310F0A8
:1097C0001F0013FA00F042F82100704740B2002851
:1097D00009D540B210F00F00DFF8B422801809015B
:1097E00000F8041C04E040B2DFF8A822090181540B
:1097F000704738B504000D00E4B22000002810D0F6
:1098000001285BD0022876D0032800F08780052845
:1098100000F0A180062800F09F80072800F0B980A2
:10982000D4E0DFF87402006850F00600DFF8681238
:109830000860DFF86802006830F47C704FF4A871AB
:109840000843DFF8581208600720FFF7B3FF07202E
:10985000FFF7A4FF0A210720FFF7B8FFE4B2DFF803
:10986000400250F8240080214170E4B2DFF8300259
:1098700050F8240001210170E4B2DFF8240250F80E
:10988000240080214171E4B2DFF8140250F8240072
:1098900000210171E4B2DFF8080250F8240085814C
:1098A000E4B2DFF8FC0150F8240013214170E4B267
:1098B000DFF8F00100212154012032BDDFF8E8017A
:1098C000006850F0C000DFF8E0110860DFF8CC015C
:1098D000006830F47C4050F4A840DFF8C011086004
:1098E0000920FFF767FF0920FFF758FF0A21092029
:1098F000FFF76CFFB2E7DFF8B401006850F00C002E
:10990000DFF8A8110860DFF89401006830F47020D7
:1099100050F4A020DFF8841108609FE7DFF8880189
:10992000006850F00700DFF880110860DFF86C0174
:10993000006830F07C6050F02860DFF8601108604B
:109940000D20FFF737FF0D20FFF728FF0A210D201C
:10995000FFF73CFF82E781E7DFF84C01006850F039
:109960003800DFF844110860DFF84401006830F483
:109970007C1050F4A810DFF8381108601320FFF7AE
:1099800019FF1320FFF70AFF0A211320FFF71EFF1C
:1099900064E7DFF81401006850F46060DFF8081134
:1099A0000860DFF80C01006830F07C6050F0A860BF
:1099B000DFF8FC1008601520FFF7FCFE1520FFF70C
:1099C000EDFE0A211520FFF701FF47E7002074E7AD
:1099D000C0B2DFF8CC2052F8202052799207F7D598
:1099E000C0B2DFF8BC2052F82000C9B20181704734
:1099F00080B5C0B2DFF8A81051F82010497938229C
:109A000011420DD0C0B2DFF8981051F820104979FA
:109A100051F08001C0B2224A52F8200041711BE08F
:109A2000C0B21F4951F820100A89C0B2002804D1E1
:109A30001000C0B2FFF7FDFA0EE0C0B2062805D054
:109A4000C0B2012802D0C0B2072805D1C0B20100BF
:109A5000D2B21000FFF711FA01BD38B504000D00B5
:109A60000DE028780A2804D10D212000C0B2FFF7AC
:109A7000AFFF29782000C0B2FFF7AAFF6D1C28783D
:109A80000028EED131BD000000E100E080E200E0FE
:109A900018ED00E000E400E0083003401C3603400D
:109AA00034050020440A0020143003401C300340D9
:109AB00020360340002018E0C0B2434951F820107E
:109AC000002911D0C0B2404951F82010098801295D
:109AD0000AD3C0B23C4951F820100988491EC0B2CF
:109AE000394A52F820201180401CC0B20828E3D324
:109AF00036480078411E354A1170C0B2002819D18D
:109B0000324803210170002011E0C0B23049415CAD
:109B100000290BD0C0B22F4951F82010096891F0EC
:109B20000101C0B22B4A52F820201160401CC0B283
:109B30000928EAD328480078411E274A1170C0B28C
:109B4000002819D1244819210170002011E0C0B269
:109B50002249415C00290BD0C0B21E4951F82010A7
:109B6000096891F00101C0B21A4A52F82020116030
:109B7000401CC0B20928EAD370471FB50024012059
:109B80008DF8000001208DF8010001208DF8020001
:109B900000208DF8030046F2A810019046F2A810AC
:109BA00002900F48039001210E4800F04DFD00285F
:109BB00009D10C4C002200A9200000F05DFD00211D
:109BC000200000F051FE1FBDF409002060050020B8
:109BD000140A0020D004002061050020200A002083
:109BE000B59AFF1F0050014080B500F05DFE00F007
:109BF0006DFE00F02FF84FF4AD710020FFF7F9FD76
:109C0000FFF748FC01BD0268531C036011707047E8
:109C1000820707D010F8012B11F8013BBAB19A4224
:109C2000F6D014E002680B689A42A2F1013301BF3A
:109C3000934313F0803F50F8042F51F8043FF3D0C2
:109C400010F8012B11F8013B0AB19A42F8D0D01A52
:109C500070470000DFF88407FF210160DFF880070C
:109C6000006830F40040DFF878170860DFF8740708
:109C7000006830F47F40DFF86C170860DFF8680791
:109C8000006830F4F870DFF860170860DFF85C07F0
:109C9000006830F44070DFF854170860DFF85007B0
:109CA000006830F40040DFF848170860DFF8440728
:109CB000006830F47F40DFF83C170860DFF83807B1
:109CC000006830F4F870DFF830170860DFF82C0710
:109CD000006830F44070DFF824170860002005E0C9
:109CE000DFF81C17002241F82020401C1028F7DB69
:109CF000002005E0DFF80C17002241F82020401C6E
:109D00001028F7DB7047DFF8D426FF231360021E0C
:109D1000102A80F01583002940F08581002822D088
:109D200002284CD035D3042875D05ED3062800F025
:109D30009E80C0F08680082800F0C580C0F0AD800D
:109D40000A2800F0EC80C0F0D4800C2800F01381C9
:109D5000C0F0FB800E2800F03A81C0F022810F286D
:109D600000F04B815FE1DFF87826126832F40042A0
:109D7000DFF86C361A60DFF87826126832F4004299
:109D8000DFF86C361A60DFF87826002342F82030BE
:109D900049E1DFF85026126832F40052DFF8443609
:109DA0001A60DFF85026126832F40052DFF84436A9
:109DB0001A60DFF84C26002342F8203033E1DFF848
:109DC0002826126832F01002DFF81C361A60DFF81D
:109DD0002826126832F01002DFF81C361A60DFF80D
:109DE0002026002342F820301DE1DFF8F825126814
:109DF00032F48052DFF8EC351A60DFF8F82512688B
:109E000032F48052DFF8EC351A60DFF8F4250023D5
:109E100042F8203007E1DFF8D025126832F0200246
:109E2000DFF8C4351A60DFF8D025126832F020025E
:109E3000DFF8C4351A60DFF8C825002342F8203067
:109E4000F1E0DFF8A025126832F40062DFF8943503
:109E50001A60DFF8A025126832F40062DFF894354A
:109E60001A60DFF89C25002342F82030DBE0DFF8A1
:109E70007825126832F04002DFF86C351A60DFF89E
:109E80007825126832F04002DFF86C351A60DFF88E
:109E90007025002342F82030C5E0DFF8482512681D
:109EA00032F48062DFF83C351A60DFF8482512682A
:109EB00032F48062DFF83C351A60DFF84425002375
:109EC00042F82030AFE0DFF82025126832F080023F
:109ED000DFF814351A60DFF82025126832F08002AE
:109EE000DFF814351A60DFF81825002342F8203017
:109EF00099E0DFF8F024126832F40072DFF8E434FD
:109F00001A60DFF8F024126832F40072DFF8E434EB
:109F10001A60DFF8EC24002342F8203083E0DFF8F9
:109F2000C824126832F48072DFF8BC341A60DFF89B
:109F3000C824126832F48072DFF8BC341A60DFF88B
:109F4000C024002342F820306DE0DFF89824126826
:109F500032F48072DFF88C341A60DFF898241268CB
:109F600032F48072DFF88C341A60DFF89424002316
:109F700042F8203057E0DFF86C24126832F40042D7
:109F8000DFF860341A60DFF86C24126832F40042A3
:109F9000DFF860341A60DFF86824002342F82030CC
:109FA00041E0DFF84824126832F48072DFF83C3474
:109FB0001A60DFF84824126832F48072DFF83C340B
:109FC0001A60DFF83C24002342F820302BE0DFF851
:109FD0001424126832F48042DFF808341A60DFF883
:109FE0001424126832F48042DFF808341A60DFF873
:109FF0001024002342F8203015E0DFF8F023126827
:10A0000032F40072DFF8E4331A60DFF8F0231268EC
:10A0100032F40072DFF8E4331A60DFF8E42300233F
:10A0200042F82030FFE7012940F08A81002822D041
:10A0300002284CD035D3042875D05ED3062800F012
:10A040009E80C0F08680082800F0C580C0F0AD80FA
:10A050000A2800F0ED80C0F0D4800C2800F01681B2
:10A06000C0F0FD800E2800F03E81C0F025810F2851
:10A0700000F04F8164E1DFF86813096831F40041B2
:10A08000DFF85C231160DFF86813096851F40041C0
:10A09000DFF85C231160DFF86813012241F820200B
:10A0A0004EE1DFF84013096831F40051DFF8342342
:10A0B0001160DFF84013096851F40051DFF83423D0
:10A0C0001160DFF83C13012241F8202038E1DFF86D
:10A0D0001813096831F01001DFF80C231160DFF864
:10A0E0001813096851F01001DFF80C231160DFF834
:10A0F0001013012241F8202022E1DFF8E81209685C
:10A1000031F48051DFF8DC221160DFF8E8120968D1
:10A1100051F48051DFF8DC221160DFF8E4120122F3
:10A1200041F820200CE1DFF8C012096831F020016D
:10A13000DFF8B4221160DFF8C012096851F0200185
:10A14000DFF8B4221160DFF8B812012241F82020B4
:10A15000F6E0DFF89012096831F40061DFF884223C
:10A160001160DFF89012096851F40061DFF8842271
:10A170001160DFF88C12012241F82020E0E0DFF8C6
:10A180006812096831F04001DFF85C221160DFF8E5
:10A190006812096851F04001DFF85C221160DFF8B5
:10A1A0006012012241F82020CAE0DFF83812096865
:10A1B00031F48061DFF82C221160DFF83812096871
:10A1C00051F48061DFF82C221160DFF83412012293
:10A1D00041F82020B4E0DFF81012096831F0800166
:10A1E000DFF804221160DFF81012096851F08001D5
:10A1F000DFF804221160DFF80812012241F8202064
:10A200009EE0DFF8E011096831F40071DFF8D42135
:10A210001160DFF8E01109684FF400721143DFF8B4
:10A22000D4211160DFF8D811012241F8202087E005
:10A23000DFF8B411096831F48071DFF8AC211160E6
:10A24000DFF8B41109684FF480721143DFF8A821D8
:10A250001160DFF8AC11012241F8202070E0DFF836
:10A260008411096831F48071DFF878211160DFF81A
:10A27000841109684FF480721143DFF8782111606E
:10A28000DFF87C11012241F8202059E0DFF8541159
:10A29000096831F40041DFF84C211160DFF85411F6
:10A2A000096851F40041DFF84C211160DFF85011CA
:10A2B000012241F8202043E0DFF83011096831F431
:10A2C0008071DFF828211160DFF8301109684FF440
:10A2D00080721143DFF824211160DFF8241101227C
:10A2E00041F820202CE0DFF8FC10096831F48041AF
:10A2F000DFF8F0201160DFF8FC10096851F48041AC
:10A30000DFF8F0201160DFF8F810012241F820207A
:10A3100016E0DFF8D810096831F40071DFF8CC20BE
:10A320001160DFF8D81009684FF400721143DFF8AC
:10A33000CC201160DFF8C810012241F82020FFE78F
:10A34000704780B53048006800280DD02F4800685D
:10A35000002809D02B488068002802D0294880684E
:10A3600080472B48002101602A48006800280DD052
:10A3700029480068002809D02248C069002802D076
:10A380002048C069804725480021016024480068B2
:10A3900000280DD023480068002809D01948006A19
:10A3A000002802D01748006A80471F48002101603A
:10A3B00001BD80B51D48006800280DD01C4800680C
:10A3C000002809D00F48406B002802D00D48406B90
:10A3D000804718480021016001BD0000003503409E
:10A3E0000030034004300340083003401030034085
:10A3F000003203400432034008320340103203406D
:10A4000074090020B4090020040060428400604206
:10A410000401604208006042880060420801604216
:10A4200014006042940060421401604238006042AF
:10A43000B8006042380160420746384600F06AFAC8
:10A44000FBE72DE9F04784B08146884614461E4656
:10A450000DF1000A04E014F8011B4046C84780468D
:10A46000207810B904B0BDE8F0872528F3D1641C2A
:10A4700014F8015B252D6FD0582D51D0632D0ED0CF
:10A48000642D12D0692D10D06F2D49D0702D4CD075
:10A49000732D50D0752D43D0782D41D0E0E7306832
:10A4A000011D31600168C9B2D7E73168081D30600D
:10A4B0000F68002F03D52D214046C84780466F2DD9
:10A4C00008BF082105D045F02000782814BF0A21D4
:10A4D00010210B203A46642D02D1002F48BF524272
:10A4E000431E1846B2FBF1FC01FB1C223032D2B2F3
:10A4F0003A2A24BFA5F1510E724403F80A2062469D
:10A500000AB10128ECDAC0F10B0500A94718404652
:10A51000002DA4D017F8011BC8476D1EFAD19EE785
:10A520003168081D30600F68C9E73168081D306068
:10A530000F687825C3E73168081D30600D6828462C
:10A5400000F0F2F907464046002F88D015F8011BAD
:10A55000C8477F1EFAD182E725217EE740B2410934
:10A56000244A012310F01F0013FA00F042F82100E2
:10A57000704740B24109204A012310F01F0013FA2E
:10A5800000F042F82100704740B2002808D540B2E0
:10A5900010F00F00194A8018090100F8041C03E0AC
:10A5A00040B2174A090181547047002100E0491C5C
:10A5B00000290CD10C22134B02FB0132126890428D
:10A5C000F5D10C200F4A00FB0120001D00E0002007
:10A5D000704780B50C49884209D10620FFF7C9FFB2
:10A5E0000620FFF7BBFF0A210620FFF7CDFF002062
:10A5F00002BD000000E100E080E200E018ED00E0B4
:10A6000000E400E0540500200050014038B504008B
:10A610000D00206910F00100C0B2002806D0002013
:10A62000E0602868002801D028688047206B10F07F
:10A630000100C0B2002806D00020E062686800284F
:10A6400001D06868804731BD38B504000D00002C8A
:10A6500001D104200FE02000FFF7A7FF002803D05E
:10A660000021016000214160EDB2012D02D12000E6
:10A67000FFF7AFFF002032BD7CB504000D001600CF
:10A680000422002101A800F06AF90422002100A898
:10A6900000F065F9002C01D0002D01D1042073E0F9
:10A6A0002000FFF782FF002801D104206CE0F6B201
:10A6B000002E6AD10021A1602978002903D0022947
:10A6C0002FD025D336E0019931F040010191019955
:10A6D0004908490001916978002903D0022934D042
:10A6E0002AD33BE0019931F004010191019931F045
:10A6F00008010191A978019A61F341020192A978B8
:10A70000002933D16968B1F5803F29D304203BE0AB
:10A71000019951F0400101910199490849000191C5
:10A72000D9E7019931F040010191019951F00101FE
:10A730000191D0E7042027E0019951F00401019133
:10A74000019931F008010191D4E7019931F0040138
:10A750000191019951F008010191CBE7042013E028
:10A76000A968B1F5803F01D304200DE0696821603C
:10A77000A968A161E978019A61F3C7120192019970
:10A78000A160E9680160002076BDF6B2012E69D1B2
:10A790000021A1622978002903D002292FD025D3D6
:10A7A00036E0009931F040010091009949084900D4
:10A7B00000916978002903D0022934D02AD33BE0E4
:10A7C000009931F004010091009931F008010091E5
:10A7D000A978009A61F341020092A978002933D147
:10A7E0006968B1F5803F29D30420CDE7009951F085
:10A7F000400100910099490849000091D9E700996A
:10A8000031F040010091009951F001010091D0E731
:10A810000420B9E7009951F004010091009931F04A
:10A8200008010091D4E7009931F0040100910099EA
:10A8300051F008010091CBE70420A5E7A968B1F524
:10A84000803F01D304209FE769682162A968A16362
:10A85000E978009A61F3C71200920099A162E96851
:10A86000416090E704208FE7002801D104200BE02D
:10A87000C9B2002909D1816851F020018160816845
:10A8800051F08001816000207047C9B2012908D1D0
:10A89000816A51F020018162816A51F080018162F8
:10A8A000F1E70420F0E700000648006830F4FE708D
:10A8B000044908600448006830F4FE7002490860EA
:10A8C000704700BF1830034018320340002006E0F4
:10A8D000C0B20C4951F8201001220A60401CC0B2DD
:10A8E0000928F5D308480068084908400649086067
:10A8F0000748006840F4DE4050F0E000044908607A
:10A9000070470000D0040020003003401F90FFFF7C
:10A910000032034080B5C046C046024A11001820EC
:10A92000ABBEFBE72600020000F10103810704D063
:10A9300010F8011B89B18107FAD10268B2F1013127
:10A94000914311F0803F04BF50F8042FF6E710F850
:10A95000011B11B110F8011BFBE7C01A704710B5BD
:10A96000040010000A000100200000F003F820009D
:10A9700010BD000062F30F2262F31F42401810F076
:10A98000030308D0C91A1FD3DB0748BF00F8012D05
:10A9900028BF20F8022D130030B414461546103994
:10A9A00028BF20E93C00FAD8490728BF20E90C005D
:10A9B00048BF40F8042D890028BF20F8022D48BF69
:10A9C00000F8012D30BC7047C91818BF00F8012DE0
:10A9D000CB0728BF00F8012D7047000081B000218F
:10A9E000009102E00099491C00910099002912D1C0
:10A9F00000994FF4C272DFF8243002FB013109687C
:10AA00008842EFD100984FF4C271DFF8102001FBAB
:10AA10000020001D00E0002001B070470000002071
:10AA200070B582B0040001252000FFF7D7FF0600B3
:10AA300000208DF8000011E09DF80000C0B216EB78
:10AA4000C001B1F85811491EC0B216EBC000A0F801
:10AA500058119DF80000401C8DF800009DF8000082
:10AA6000052820D29DF8000016EBC000D0F85C014C
:10AA70000028EED000259DF8000016EBC000B0F8CD
:10AA800058010028D8D120009DF8001016EBC10114
:10AA9000D1F85C1188479DF8000016EBC00000213A
:10AAA000C0F85C1104E0EDB2012D01D100207071FD
:10AAB00073BD38B504000D000220009027E0009817
:10AAC000242101FB0050002180F8711000982421FE
:10AAD00001FB005090F871000128F0D0009824216B
:10AAE00001FB0050806E00280ED0009A1000C0B20A
:10AAF000242101FB005010F154012000D2B2242384
:10AB000003FB0252926E90470098401C0090009800
:10AB100095F85010884214D20098242101FB00506F
:10AB2000806D008810F480600128EDDB00982421FE
:10AB300001FB0050806D008810F480400128E3DBA9
:10AB4000C4E731BD38B504000D006878002800F076
:10AB5000F48094F84000C0070BD594F8400010F042
:10AB6000FE0084F84000A868002802D02000A968F0
:10AB70008847A08CC0F34020C00704D5A08C4FF6B6
:10AB8000FF510840A08494F84000C0F34000C00783
:10AB90000BD5B4F84800C0F38030C00705D4B4F832
:10ABA000480050F48040A4F84800B4F84800C0F3CE
:10ABB0008020C0072ED5B4F84800C0F38030C0070D
:10ABC00028D594F84000C0F34000C0070CD594F895
:10ABD000400010F0FD0084F84000E868002819D01B
:10ABE0002000E968884715E0B4F84800D5F88C10D3
:10ABF000002906D015F178012000D5F88C20904767
:10AC000008E0B4F84800B4F848104FF6FF3211409D
:10AC1000A4F84810B4F84400C0F38020C0070DD554
:10AC2000B4F84400C0F38030C00707D5A86E0028F0
:10AC300004D015F154012000AA6E904794F840000A
:10AC4000C0F38000C0070BD594F8400010F0FB0063
:10AC500084F840006869002802D0200069698847AC
:10AC600094F84000C0F3C000C0073CD594F8400001
:10AC700010F0F70084F8400095F8500000901CE0B8
:10AC80000098242101FB0051496B098851F40041CF
:10AC9000242202FB0050406B01800098242101FB1C
:10ACA0000051496B09884904490C242202FB0050D9
:10ACB000406B01800098401E009000980028DFD172
:10ACC000B4F844004BF6FF710840A4F84400B4F80F
:10ACD000480050F48040A4F84800A869002802D039
:10ACE0002000A969884794F84000C0F30010C0070D
:10ACF00011D594F8400010F0EF0084F84000687916
:10AD0000012802D12000FFF78BFEE869002802D05D
:10AD10002000E969884794F84000C0F34010C0075C
:10AD20000BD594F8400010F0DF0084F8400028694B
:10AD3000002802D0200029698847287800286CD094
:10AD40002079C0070FD5207910F0FE0020716879B6
:10AD5000012802D12000FFF763FEE869002802D035
:10AD60002000E96988472079C0F34000C00709D571
:10AD7000207910F0FD002071286A002802D0200000
:10AD8000296A88472079C0F38000C0070AD5686A1D
:10AD9000002803D02000696A884703E0207910F07A
:10ADA000FB0020712079C0F3C000C00709D52079CD
:10ADB00010F0F7002071A86A002802D02000A96ACC
:10ADC00088472079C0F30010C0070AD5E86A002838
:10ADD00003D02000E96A884703E0207910F0EF00F3
:10ADE00020712079C0F34010C00709D5207910F0F8
:10ADF000DF002071286B002802D02000296B8847D3
:10AE00002079000609D5207910F07F002071686B49
:10AE1000002802D02000696B884731BD80B56748A3
:10AE20000078002803D10020FEF7E2FD0EE0634821
:10AE30000078022803D1002000F0CBF806E05F483C
:10AE40000078042802D1002000F0F6F801BD704718
:10AE500080B55A484078002803D10120FEF7C8FD8C
:10AE60000EE056484078022803D1012000F0B1F8E6
:10AE700006E052484078042802D1012000F0DCF8B6
:10AE800001BD704780B54D488078002803D102206D
:10AE9000FEF7AEFD0EE049488078022803D102207B
:10AEA00000F097F806E045488078042802D1022097
:10AEB00000F0C2F801BD704780B54048C078002856
:10AEC00003D10320FEF794FD0EE03C48C078022831
:10AED00003D1032000F07DF806E03848C07804284C
:10AEE00002D1032000F0A8F801BD704780B53348B7
:10AEF0000079002803D10420FEF77AFD0EE02F48E8
:10AF00000079022803D1042000F063F806E02B4802
:10AF10000079042802D1042000F08EF801BD7047AA
:10AF200080B526484079002803D10520FEF760FD52
:10AF30000EE022484079022803D1052000F049F8AC
:10AF400006E01E484079042802D1052000F074F87C
:10AF500001BD704780B519488079002803D10620CB
:10AF6000FEF746FD0EE015488079022803D1062041
:10AF700000F02FF806E011488079042802D106205D
:10AF800000F05AF801BD704780B50C48C079002820
:10AF900003D10720FEF72CFD0EE00848C0790228F7
:10AFA00003D1072000F015F806E00448C079042812
:10AFB00002D1072000F040F801BD0000440A002043
:10AFC00070470000C0B2174A52F82000C9B2018190
:10AFD000704710B50400E4B2124850F8240001890B
:10AFE00011480078114A81540F480078401C0E4ADD
:10AFF0001070C9B20020FEF7EBFC0D480078411C30
:10B000000B4A1170C0B20B49415C2000C0B2FFF77F
:10B01000D9FF07480078202802D105480021017097
:10B0200010BD000014050020850A002064070020E0
:10B03000860A0020EC02002070470000354836499F
:10B0400001603448354901603548002101703048BD
:10B0500000210170334801210170334881210170C2
:10B06000324881210170324883210170314800212A
:10B07000017031485C2101702248007850F00200D4
:10B08000204908702D4800788007FBD52C48002106
:10B0900001701E48002101701B48132101701948DE
:10B0A000007850F010001749087024480078C00656
:10B0B000FBD51448007850F0400012490870114840
:10B0C0000078C0B210F0E0001E4908601B4800780C
:10B0D000C0B210F0E0001B4909688842EFD11A485D
:10B0E00000688005800D40F2FF31884209D0174882
:10B0F0001749016017481449096801801348002165
:10B1000001607047000001403C00014038000140F0
:10B1100010000140001C014051E5CC1AAE1A33E585
:10B120000810014014000140180001401C000140BB
:10B13000200001402800014030000140040001408F
:10B1400034000140800A0020000100400CE0024071
:10B1500054E5CC1A04E002402DE9F04100F1080169
:10B16000026801EB820243685808400002EB80004D
:10B1700000240025264601270CE014F8018BF44535
:10B1800006D00CF8018B761C36B2002EF7D40127BE
:10B19000F44513D1824201D1BDE8F08152F804CBCD
:10B1A0005FEAC37E48BFCC4452F804EBE644EFE7C5
:10B1B0000C686418091D51F8045B2D19AC42F7D0D6
:10B1C0005FB114F9016B002705E00C686418091DD4
:10B1D00051F8045B2D19AC42F7D0002ECDD436B215
:10B1E000002ED4D4F44518BFAC421EBF14F8018B16
:10B1F0000CF8018B761EF2D1CAE700000D0A5765E4
:10B200006C636F6D6520796F75206A6F696E20744D
:10B210006865205473696E6768756120456D626565
:10B220006464656420437572726963756C756D2121
:10B230000D0A55415254206F6620426C7565746F3B
:10B240006F7468206173206265656E20696E697431
:10B2500069616C697A65642E2E2E0D0A506C6561E9
:10B26000736520707265737320616E796B65792EDA
:10B270000D0A00000A0D72656365697665642063D6
:10B280006F6D6D616E643A6C65673D256420666F15
:10B2900072776172643D2564206C696674416E64E6
:10B2A0004D6F7665206C65670A0D000080B5084912
:10B2B0000848FFF7ABF901BD80B507490748FFF71C
:10B2C000F8FB01BD80B504490448FFF73BFC01BD14
:10B2D00058050020005001400400002000210440D7
:10B2E0000A0D726563656976656420636F6D6D61D3
:10B2F0006E643A706F72743D256420726174653DAE
:10B300002564207365742070776D0A0D00000000BD
:10B3100010B5084979441C31074C7C441A34A142C9
:10B3200006D0081D0A68511888470146A142F8D185
:10B3300010BD00BF740000009C0000000A0D726583
:10B3400063656976656420636F6D6D616E643A252F
:10B3500064205455524E5F4C4546540A0D0000007F
:10B360000A0D726563656976656420636F6D6D6152
:10B370006E643A2564205455524E5F5249474854F2
:10B380000A0D00000A0D72656365697665642063C5
:10B390006F6D6D616E643A5455524E5F41524F5518
:10B3A0004E440A0D000000009FE3FFFF240500004B
:10B3B0006405002000000000A1FDFFFF0200000066
:10B3C00002000000CC010000CC01000000000020C1
:10B3D000620500000A0D7265636569766564206325
:10B3E0006F6D6D616E643A2564204D4F56450A0DB0
:10B3F000000000000A0D64697374616E6365256462
:10B400003A2025642E30302564206D0A0D0000009E
:10B410000A0D64697374616E636525643A2025645E
:10B420002E302564206D0A0D000000000A0D6469AD
:10B430007374616E636525643A2025642E2564204B
:10B440006D0A0D000A0D7265636569766564206397
:10B450006F6D6D616E643A25730A0D0000F009F896
:10B46000002801D0FFF754FF0020FDF78DFDFEF707
:10B470000DF801207047000001488047014800474F
:10B480003DB0FF1FADB4FF1F0A4C69676874303AC6
:10B4900025640000094C69676874313A256400002E
:10B4A000094C69676874323A25640A00C046C04690
:10B4B000C046C046FFF7D2FFFFF7FEBFFFF7FEBF53
:10B4C000FFF7FEBFFFF7FEBFFFF7FEBFFFF7FEBFB0
:10B4D000FFF7FEBFFFF7FEBFFFF7FEBFFFF7FEBFA0
:10B4E000FFF7FEBFFFF7FEBFFFF7FEBFFEF729BF66
:10B4F000FEF75FBFFFF7DABEFFF790BCFFF7A7BC10
:10B50000FFF7A6BCFFF7BDBCFFF7BCBCFFF7D3BC81
:10B51000FFF7D2BCFFF7E9BCFFF7E8BCFFF7FFBCC1
:10B52000FFF7FEBCFFF715BDFFF714BDFFF72BBDFE
:10B53000FFF72ABDFFF744BDFFF7FEBFFFF7FEBFD1
:10B54000FDF7DEBAFDF70FBBFDF740BBFFF7FEBF0F
:10B55000FFF7FEBFFFF7FEBFFFF7FEBFFFF7FEBF1F
:10B56000FFF7FEBFFFF7A8BEFFF7ACBEFFF7FEBFB9
:10B57000FFF7FEBFFFF7FEBFFFF7FEBFFFF7FEBFFF
:10B58000FFF7FEBFFFF7FEBFFFF7FEBFFFF7FEBFEF
:10B590000300210440810081008100FD00000FFDB7
:10B5A000000019FD000023FD00002DFD000033FD0B
:10B5B000000033FD00002DFD000023FD000019FDFB
:10B5C00000000AFD00000FFD000019FD00001EFD37
:10B5D00000002DFD000033FD00000FFD00001EFDEA
:10B5E000000023FD00002DFD000033FD000033FDB1
:10B5F00000002DFD00001EFD000019FD00000AF9ED
:10B60000000014FD00001EFD000028FD0000338135
:10B61000008C001E0D0A53504920536C61766572F0
:10B62000206F757470757420666F72207465737402
:10B63000210D0A81009A000002FB00018080FC00BD
:10B6400017AF8AFF1FB98AFF1FC38AFF1FD18AFF66
:10B650001FDF8AFF1FED8AFF1FF8000002FB0001B9
:10B660008080FC0017158BFF1F1F8BFF1F298BFF8E
:10B670001F378BFF1F458BFF1F538BFF1FF80000E9
:10B6800002FB00018080FC00177B8BFF1F858BFF76
:10B690001F8F8BFF1F9D8BFF1FAB8BFF1FB98BFF76
:10B6A0001FF30006700240EC030020F4000019F4C0
:10B6B000000671024018040020F400001AF400068D
:10B6C00072024044040020F400001BFD007E148040
:10B6D0006642188066421C80664220806642248052
:10B6E0006642288066422C806642348066423880FA
:10B6F0006642005002404050024080500240C0501C
:10B700000240005202404052024080520240C05269
:10B710000240008003400081034000820340008318
:10B7200003400084034000850340008603400087F7
:10B7300003400080034000810340008203400083F7
:10B740000340008403400085034000860308400056
:0CB7500087034000500140F8000103197D
:040000051FFFB4AD78
:00000001FF
